{
  "contractName": "StoreFactory",
  "abi": [
    {
      "inputs": [],
      "stateMutability": "nonpayable",
      "type": "constructor"
    },
    {
      "anonymous": false,
      "inputs": [
        {
          "indexed": false,
          "internalType": "uint256",
          "name": "storeId",
          "type": "uint256"
        },
        {
          "indexed": true,
          "internalType": "address",
          "name": "marketplaceAddress",
          "type": "address"
        }
      ],
      "name": "StoreCreated",
      "type": "event"
    },
    {
      "inputs": [
        {
          "internalType": "address",
          "name": "",
          "type": "address"
        }
      ],
      "name": "isAdmin",
      "outputs": [
        {
          "internalType": "bool",
          "name": "",
          "type": "bool"
        }
      ],
      "stateMutability": "view",
      "type": "function",
      "constant": true
    },
    {
      "inputs": [
        {
          "internalType": "address",
          "name": "",
          "type": "address"
        }
      ],
      "name": "isApprovedStoreOwner",
      "outputs": [
        {
          "internalType": "bool",
          "name": "",
          "type": "bool"
        }
      ],
      "stateMutability": "view",
      "type": "function",
      "constant": true
    },
    {
      "inputs": [
        {
          "internalType": "address",
          "name": "",
          "type": "address"
        },
        {
          "internalType": "uint256",
          "name": "",
          "type": "uint256"
        }
      ],
      "name": "ownerStores",
      "outputs": [
        {
          "internalType": "contract Store",
          "name": "",
          "type": "address"
        }
      ],
      "stateMutability": "view",
      "type": "function",
      "constant": true
    },
    {
      "inputs": [
        {
          "internalType": "uint256",
          "name": "",
          "type": "uint256"
        }
      ],
      "name": "stores",
      "outputs": [
        {
          "internalType": "contract Store",
          "name": "",
          "type": "address"
        }
      ],
      "stateMutability": "view",
      "type": "function",
      "constant": true
    },
    {
      "inputs": [
        {
          "internalType": "uint256",
          "name": "",
          "type": "uint256"
        }
      ],
      "name": "storesCollection",
      "outputs": [
        {
          "internalType": "contract Store",
          "name": "",
          "type": "address"
        }
      ],
      "stateMutability": "view",
      "type": "function",
      "constant": true
    },
    {
      "inputs": [],
      "name": "storesCount",
      "outputs": [
        {
          "internalType": "uint256",
          "name": "",
          "type": "uint256"
        }
      ],
      "stateMutability": "view",
      "type": "function",
      "constant": true
    },
    {
      "inputs": [
        {
          "internalType": "address payable",
          "name": "_beneficiary",
          "type": "address"
        },
        {
          "internalType": "string",
          "name": "_name",
          "type": "string"
        },
        {
          "internalType": "string",
          "name": "_description",
          "type": "string"
        }
      ],
      "name": "createNewStore",
      "outputs": [],
      "stateMutability": "nonpayable",
      "type": "function"
    },
    {
      "inputs": [
        {
          "internalType": "address",
          "name": "_admin",
          "type": "address"
        }
      ],
      "name": "addAdmins",
      "outputs": [],
      "stateMutability": "nonpayable",
      "type": "function"
    },
    {
      "inputs": [
        {
          "internalType": "address",
          "name": "_admin",
          "type": "address"
        }
      ],
      "name": "removeAdmins",
      "outputs": [],
      "stateMutability": "nonpayable",
      "type": "function"
    },
    {
      "inputs": [
        {
          "internalType": "address",
          "name": "_owner",
          "type": "address"
        }
      ],
      "name": "addStoreOwner",
      "outputs": [],
      "stateMutability": "nonpayable",
      "type": "function"
    },
    {
      "inputs": [
        {
          "internalType": "address",
          "name": "_owner",
          "type": "address"
        }
      ],
      "name": "removeStoreOwner",
      "outputs": [],
      "stateMutability": "nonpayable",
      "type": "function"
    },
    {
      "inputs": [
        {
          "internalType": "uint256",
          "name": "storeId",
          "type": "uint256"
        }
      ],
      "name": "getStore",
      "outputs": [
        {
          "internalType": "contract Store",
          "name": "",
          "type": "address"
        }
      ],
      "stateMutability": "view",
      "type": "function",
      "constant": true
    },
    {
      "inputs": [],
      "name": "getAllStores",
      "outputs": [
        {
          "internalType": "contract Store[]",
          "name": "_allStores",
          "type": "address[]"
        }
      ],
      "stateMutability": "view",
      "type": "function",
      "constant": true
    },
    {
      "inputs": [
        {
          "internalType": "address",
          "name": "owner",
          "type": "address"
        }
      ],
      "name": "getOwnerStoresCount",
      "outputs": [
        {
          "internalType": "uint256",
          "name": "_storesCount",
          "type": "uint256"
        }
      ],
      "stateMutability": "view",
      "type": "function",
      "constant": true
    },
    {
      "inputs": [
        {
          "internalType": "address",
          "name": "_owner",
          "type": "address"
        }
      ],
      "name": "getOwnerStores",
      "outputs": [
        {
          "internalType": "contract Store[]",
          "name": "_ownerStores",
          "type": "address[]"
        }
      ],
      "stateMutability": "view",
      "type": "function",
      "constant": true
    },
    {
      "inputs": [],
      "name": "getMyStores",
      "outputs": [
        {
          "internalType": "contract Store[]",
          "name": "_myStores",
          "type": "address[]"
        }
      ],
      "stateMutability": "view",
      "type": "function",
      "constant": true
    },
    {
      "inputs": [],
      "name": "getIsApprovedStoreOwner",
      "outputs": [
        {
          "internalType": "bool",
          "name": "",
          "type": "bool"
        }
      ],
      "stateMutability": "view",
      "type": "function",
      "constant": true
    }
  ],
  "bytecode": "0x608060405234801561001057600080fd5b50336000806101000a81548173ffffffffffffffffffffffffffffffffffffffff021916908373ffffffffffffffffffffffffffffffffffffffff160217905550615c64806100606000396000f3fe60806040523480156200001157600080fd5b5060043610620001245760003560e01c80638b4bd10511620000b1578063c45d05d5116200007b578063c45d05d51462000531578063cd9c0a3814620006ac578063dca73e6b146200074a578063e304f6ee14620007ad578063e8a59cd814620007f45762000124565b80638b4bd10514620004435780639adeb5f114620004a6578063aa0cd2b814620004ed578063aa4340d4146200050d5762000124565b806351732a4e11620000f357806351732a4e146200029b5780636174fdd1146200032c578063706bc10714620003735780638340312014620003d25762000124565b80631f939ce6146200012957806324d7806c146200019a578063310e4bf814620001f9578063499b7bfa1462000254575b600080fd5b62000158600480360360208110156200014157600080fd5b810190808035906020019092919050505062000865565b604051808273ffffffffffffffffffffffffffffffffffffffff1673ffffffffffffffffffffffffffffffffffffffff16815260200191505060405180910390f35b620001df60048036036020811015620001b257600080fd5b81019080803573ffffffffffffffffffffffffffffffffffffffff169060200190929190505050620008a2565b604051808215151515815260200191505060405180910390f35b6200023e600480360360208110156200021157600080fd5b81019080803573ffffffffffffffffffffffffffffffffffffffff169060200190929190505050620008c2565b6040518082815260200191505060405180910390f35b62000299600480360360208110156200026c57600080fd5b81019080803573ffffffffffffffffffffffffffffffffffffffff1690602001909291905050506200090e565b005b620002ea60048036036040811015620002b357600080fd5b81019080803573ffffffffffffffffffffffffffffffffffffffff1690602001909291908035906020019092919050505062000a83565b604051808273ffffffffffffffffffffffffffffffffffffffff1673ffffffffffffffffffffffffffffffffffffffff16815260200191505060405180910390f35b62000371600480360360208110156200034457600080fd5b81019080803573ffffffffffffffffffffffffffffffffffffffff16906020019092919050505062000acf565b005b620003b8600480360360208110156200038b57600080fd5b81019080803573ffffffffffffffffffffffffffffffffffffffff16906020019092919050505062000ce6565b604051808215151515815260200191505060405180910390f35b6200040160048036036020811015620003ea57600080fd5b810190808035906020019092919050505062000d06565b604051808273ffffffffffffffffffffffffffffffffffffffff1673ffffffffffffffffffffffffffffffffffffffff16815260200191505060405180910390f35b6200044d62000d43565b6040518080602001828103825283818151815260200191508051906020019060200280838360005b838110156200049257808201518184015260208101905062000475565b505050509050019250505060405180910390f35b620004eb60048036036020811015620004be57600080fd5b81019080803573ffffffffffffffffffffffffffffffffffffffff16906020019092919050505062000dd3565b005b620004f762000feb565b6040518082815260200191505060405180910390f35b6200051762000ff1565b604051808215151515815260200191505060405180910390f35b620006aa600480360360608110156200054957600080fd5b81019080803573ffffffffffffffffffffffffffffffffffffffff169060200190929190803590602001906401000000008111156200058757600080fd5b8201836020820111156200059a57600080fd5b80359060200191846001830284011164010000000083111715620005bd57600080fd5b91908080601f016020809104026020016040519081016040528093929190818152602001838380828437600081840152601f19601f820116905080830192505050505050509192919290803590602001906401000000008111156200062157600080fd5b8201836020820111156200063457600080fd5b803590602001918460018302840111640100000000831117156200065757600080fd5b91908080601f016020809104026020016040519081016040528093929190818152602001838380828437600081840152601f19601f82011690508083019250505050505050919291929050505062001045565b005b620006f160048036036020811015620006c457600080fd5b81019080803573ffffffffffffffffffffffffffffffffffffffff169060200190929190505050620013ef565b6040518080602001828103825283818151815260200191508051906020019060200280838360005b838110156200073657808201518184015260208101905062000719565b505050509050019250505060405180910390f35b62000754620014be565b6040518080602001828103825283818151815260200191508051906020019060200280838360005b83811015620007995780820151818401526020810190506200077c565b505050509050019250505060405180910390f35b620007f260048036036020811015620007c557600080fd5b81019080803573ffffffffffffffffffffffffffffffffffffffff1690602001909291905050506200158b565b005b62000823600480360360208110156200080c57600080fd5b810190808035906020019092919050505062001701565b604051808273ffffffffffffffffffffffffffffffffffffffff1673ffffffffffffffffffffffffffffffffffffffff16815260200191505060405180910390f35b600381815481106200087357fe5b906000526020600020016000915054906101000a900473ffffffffffffffffffffffffffffffffffffffff1681565b60046020528060005260406000206000915054906101000a900460ff1681565b6000600660008373ffffffffffffffffffffffffffffffffffffffff1673ffffffffffffffffffffffffffffffffffffffff168152602001908152602001600020805490509050919050565b6000809054906101000a900473ffffffffffffffffffffffffffffffffffffffff1673ffffffffffffffffffffffffffffffffffffffff163373ffffffffffffffffffffffffffffffffffffffff16146200096857600080fd5b600460008273ffffffffffffffffffffffffffffffffffffffff1673ffffffffffffffffffffffffffffffffffffffff16815260200190815260200160002060009054906101000a900460ff1662000a28576040517f08c379a000000000000000000000000000000000000000000000000000000000815260040180806020018281038252601c8152602001807f41646472657373206e6f7420616c726561647920616e2061646d696e0000000081525060200191505060405180910390fd5b6000600460008373ffffffffffffffffffffffffffffffffffffffff1673ffffffffffffffffffffffffffffffffffffffff16815260200190815260200160002060006101000a81548160ff02191690831515021790555050565b6006602052816000526040600020818154811062000a9d57fe5b906000526020600020016000915091509054906101000a900473ffffffffffffffffffffffffffffffffffffffff1681565b600460003373ffffffffffffffffffffffffffffffffffffffff1673ffffffffffffffffffffffffffffffffffffffff16815260200190815260200160002060009054906101000a900460ff168062000b7457506000809054906101000a900473ffffffffffffffffffffffffffffffffffffffff1673ffffffffffffffffffffffffffffffffffffffff163373ffffffffffffffffffffffffffffffffffffffff16145b62000be7576040517f08c379a00000000000000000000000000000000000000000000000000000000081526004018080602001828103825260148152602001807f596f7520617265206e6f7420616e2061646d696e00000000000000000000000081525060200191505060405180910390fd5b600560008273ffffffffffffffffffffffffffffffffffffffff1673ffffffffffffffffffffffffffffffffffffffff16815260200190815260200160002060009054906101000a900460ff1662000c8b576040517f08c379a000000000000000000000000000000000000000000000000000000000815260040180806020018281038252602381526020018062005bc26023913960400191505060405180910390fd5b6000600560008373ffffffffffffffffffffffffffffffffffffffff1673ffffffffffffffffffffffffffffffffffffffff16815260200190815260200160002060006101000a81548160ff02191690831515021790555050565b60056020528060005260406000206000915054906101000a900460ff1681565b60006002600083815260200190815260200160002060009054906101000a900473ffffffffffffffffffffffffffffffffffffffff169050919050565b6060600380548060200260200160405190810160405280929190818152602001828054801562000dc957602002820191906000526020600020905b8160009054906101000a900473ffffffffffffffffffffffffffffffffffffffff1673ffffffffffffffffffffffffffffffffffffffff168152602001906001019080831162000d7e575b5050505050905090565b600460003373ffffffffffffffffffffffffffffffffffffffff1673ffffffffffffffffffffffffffffffffffffffff16815260200190815260200160002060009054906101000a900460ff168062000e7857506000809054906101000a900473ffffffffffffffffffffffffffffffffffffffff1673ffffffffffffffffffffffffffffffffffffffff163373ffffffffffffffffffffffffffffffffffffffff16145b62000eeb576040517f08c379a00000000000000000000000000000000000000000000000000000000081526004018080602001828103825260148152602001807f596f7520617265206e6f7420616e2061646d696e00000000000000000000000081525060200191505060405180910390fd5b600560008273ffffffffffffffffffffffffffffffffffffffff1673ffffffffffffffffffffffffffffffffffffffff16815260200190815260200160002060009054906101000a900460ff161562000f90576040517f08c379a000000000000000000000000000000000000000000000000000000000815260040180806020018281038252602781526020018062005be56027913960400191505060405180910390fd5b6001600560008373ffffffffffffffffffffffffffffffffffffffff1673ffffffffffffffffffffffffffffffffffffffff16815260200190815260200160002060006101000a81548160ff02191690831515021790555050565b60015481565b6000600560003373ffffffffffffffffffffffffffffffffffffffff1673ffffffffffffffffffffffffffffffffffffffff16815260200190815260200160002060009054906101000a900460ff16905090565b600560003373ffffffffffffffffffffffffffffffffffffffff1673ffffffffffffffffffffffffffffffffffffffff16815260200190815260200160002060009054906101000a900460ff16620010e9576040517f08c379a000000000000000000000000000000000000000000000000000000000815260040180806020018281038252602381526020018062005c0c6023913960400191505060405180910390fd5b6000600160008154809291906001019190505590506000848484604051620011119062001734565b808473ffffffffffffffffffffffffffffffffffffffff1673ffffffffffffffffffffffffffffffffffffffff1681526020018060200180602001838103835285818151815260200191508051906020019080838360005b838110156200118657808201518184015260208101905062001169565b50505050905090810190601f168015620011b45780820380516001836020036101000a031916815260200191505b50838103825284818151815260200191508051906020019080838360005b83811015620011ef578082015181840152602081019050620011d2565b50505050905090810190601f1680156200121d5780820380516001836020036101000a031916815260200191505b5095505050505050604051809103906000f08015801562001242573d6000803e3d6000fd5b509050806002600084815260200190815260200160002060006101000a81548173ffffffffffffffffffffffffffffffffffffffff021916908373ffffffffffffffffffffffffffffffffffffffff160217905550600660003373ffffffffffffffffffffffffffffffffffffffff1673ffffffffffffffffffffffffffffffffffffffff168152602001908152602001600020819080600181540180825580915050600190039060005260206000200160009091909190916101000a81548173ffffffffffffffffffffffffffffffffffffffff021916908373ffffffffffffffffffffffffffffffffffffffff1602179055506003819080600181540180825580915050600190039060005260206000200160009091909190916101000a81548173ffffffffffffffffffffffffffffffffffffffff021916908373ffffffffffffffffffffffffffffffffffffffff1602179055508073ffffffffffffffffffffffffffffffffffffffff167f149a3f0b13d03805d9ca97808693784d65431d28ee20c1aeea798c093f4c09d1836040518082815260200191505060405180910390a25050505050565b6060600660008373ffffffffffffffffffffffffffffffffffffffff1673ffffffffffffffffffffffffffffffffffffffff168152602001908152602001600020805480602002602001604051908101604052809291908181526020018280548015620014b257602002820191906000526020600020905b8160009054906101000a900473ffffffffffffffffffffffffffffffffffffffff1673ffffffffffffffffffffffffffffffffffffffff168152602001906001019080831162001467575b50505050509050919050565b6060600660003373ffffffffffffffffffffffffffffffffffffffff1673ffffffffffffffffffffffffffffffffffffffff1681526020019081526020016000208054806020026020016040519081016040528092919081815260200182805480156200158157602002820191906000526020600020905b8160009054906101000a900473ffffffffffffffffffffffffffffffffffffffff1673ffffffffffffffffffffffffffffffffffffffff168152602001906001019080831162001536575b5050505050905090565b6000809054906101000a900473ffffffffffffffffffffffffffffffffffffffff1673ffffffffffffffffffffffffffffffffffffffff163373ffffffffffffffffffffffffffffffffffffffff1614620015e557600080fd5b600460008273ffffffffffffffffffffffffffffffffffffffff1673ffffffffffffffffffffffffffffffffffffffff16815260200190815260200160002060009054906101000a900460ff1615620016a6576040517f08c379a00000000000000000000000000000000000000000000000000000000081526004018080602001828103825260188152602001807f4164647265737320616c726561647920616e2061646d696e000000000000000081525060200191505060405180910390fd5b6001600460008373ffffffffffffffffffffffffffffffffffffffff1673ffffffffffffffffffffffffffffffffffffffff16815260200190815260200160002060006101000a81548160ff02191690831515021790555050565b60026020528060005260406000206000915054906101000a900473ffffffffffffffffffffffffffffffffffffffff1681565b61447f80620017438339019056fe60806040523480156200001157600080fd5b506040516200447f3803806200447f8339818101604052620000379190810190620004a5565b600062000049620001a960201b60201c565b9050806000806101000a81548173ffffffffffffffffffffffffffffffffffffffff021916908373ffffffffffffffffffffffffffffffffffffffff1602179055508073ffffffffffffffffffffffffffffffffffffffff16600073ffffffffffffffffffffffffffffffffffffffff167f8be0079c531659141344cd1fd0a4f28419497f9722a3daafe3b4186f6b6457e060405160405180910390a35060008060146101000a81548160ff0219169083151502179055506200011232620001b160201b60201c565b81600190805190602001906200012a92919062000383565b5080600290805190602001906200014392919062000383565b5082600360016101000a81548173ffffffffffffffffffffffffffffffffffffffff021916908373ffffffffffffffffffffffffffffffffffffffff1602179055506001600360006101000a81548160ff0219169083151502179055505050506200070b565b600033905090565b620001c1620001a960201b60201c565b73ffffffffffffffffffffffffffffffffffffffff166000809054906101000a900473ffffffffffffffffffffffffffffffffffffffff1673ffffffffffffffffffffffffffffffffffffffff161462000252576040517f08c379a00000000000000000000000000000000000000000000000000000000081526004016200024990620005f9565b60405180910390fd5b600073ffffffffffffffffffffffffffffffffffffffff168173ffffffffffffffffffffffffffffffffffffffff161415620002c5576040517f08c379a0000000000000000000000000000000000000000000000000000000008152600401620002bc90620005d7565b60405180910390fd5b8073ffffffffffffffffffffffffffffffffffffffff166000809054906101000a900473ffffffffffffffffffffffffffffffffffffffff1673ffffffffffffffffffffffffffffffffffffffff167f8be0079c531659141344cd1fd0a4f28419497f9722a3daafe3b4186f6b6457e060405160405180910390a3806000806101000a81548173ffffffffffffffffffffffffffffffffffffffff021916908373ffffffffffffffffffffffffffffffffffffffff16021790555050565b828054600181600116156101000203166002900490600052602060002090601f016020900481019282601f10620003c657805160ff1916838001178555620003f7565b82800160010185558215620003f7579182015b82811115620003f6578251825591602001919060010190620003d9565b5b5090506200040691906200040a565b5090565b6200042f91905b808211156200042b57600081600090555060010162000411565b5090565b90565b6000815190506200044381620006f1565b92915050565b600082601f8301126200045b57600080fd5b8151620004726200046c8262000649565b6200061b565b915080825260208301602083018583830111156200048f57600080fd5b6200049c838284620006bb565b50505092915050565b600080600060608486031215620004bb57600080fd5b6000620004cb8682870162000432565b935050602084015167ffffffffffffffff811115620004e957600080fd5b620004f78682870162000449565b925050604084015167ffffffffffffffff8111156200051557600080fd5b620005238682870162000449565b9150509250925092565b60006200053c60268362000676565b91507f4f776e61626c653a206e6577206f776e657220697320746865207a65726f206160008301527f64647265737300000000000000000000000000000000000000000000000000006020830152604082019050919050565b6000620005a460208362000676565b91507f4f776e61626c653a2063616c6c6572206973206e6f7420746865206f776e65726000830152602082019050919050565b60006020820190508181036000830152620005f2816200052d565b9050919050565b60006020820190508181036000830152620006148162000595565b9050919050565b6000604051905081810181811067ffffffffffffffff821117156200063f57600080fd5b8060405250919050565b600067ffffffffffffffff8211156200066157600080fd5b601f19601f8301169050602081019050919050565b600082825260208201905092915050565b600062000694826200069b565b9050919050565b600073ffffffffffffffffffffffffffffffffffffffff82169050919050565b60005b83811015620006db578082015181840152602081019050620006be565b83811115620006eb576000848401525b50505050565b620006fc8162000687565b81146200070857600080fd5b50565b613d64806200071b6000396000f3fe6080604052600436106101395760003560e01c80636691461a116100ab5780638da5cb5b1161006f5780638da5cb5b146103ed578063a85c38ef14610418578063b9db15b41461045b578063e0f6ef871461049d578063f2fde38b146104c8578063f4398452146104f15761013a565b80636691461a146103165780636daf0fbb1461033f578063715018a6146103685780637284e4161461037f5780637acc0b20146103aa5761013a565b806338af3eed116100fd57806338af3eed1461024457806347535d7b1461026f57806355a373d61461029a5780635816f187146102c55780635c975abb146102e15780635fd8c7101461030c5761013a565b806306fdde031461014c5780630a849d4f146101775780631600c6cd146101ba5780631783ca83146101fd57806335daa731146102195761013a565b5b34801561014657600080fd5b50600080fd5b34801561015857600080fd5b5061016161051c565b60405161016e9190613730565b60405180910390f35b34801561018357600080fd5b5061019e60048036036101999190810190612e54565b6105ba565b6040516101b1979695949392919061396c565b60405180910390f35b3480156101c657600080fd5b506101e160048036036101dc9190810190612d30565b6107d1565b6040516101f497969594939291906139f0565b60405180910390f35b61021760048036036102129190810190612ea6565b61085a565b005b34801561022557600080fd5b5061022e610fe4565b60405161023b91906138b2565b60405180910390f35b34801561025057600080fd5b50610259610fea565b6040516102669190613678565b60405180910390f35b34801561027b57600080fd5b50610284611010565b6040516102919190613715565b60405180910390f35b3480156102a657600080fd5b506102af611023565b6040516102bc919061365d565b60405180910390f35b6102df60048036036102da9190810190612ea6565b611049565b005b3480156102ed57600080fd5b506102f661169e565b6040516103039190613715565b60405180910390f35b6103146116b4565b005b34801561032257600080fd5b5061033d60048036036103389190810190612d07565b611805565b005b34801561034b57600080fd5b5061036660048036036103619190810190612d95565b6119e0565b005b34801561037457600080fd5b5061037d611ca2565b005b34801561038b57600080fd5b50610394611df7565b6040516103a19190613730565b60405180910390f35b3480156103b657600080fd5b506103d160048036036103cc9190810190612e54565b611e95565b6040516103e4979695949392919061396c565b60405180910390f35b3480156103f957600080fd5b5061040261209f565b60405161040f919061365d565b60405180910390f35b34801561042457600080fd5b5061043f600480360361043a9190810190612e54565b6120c8565b60405161045297969594939291906139f0565b60405180910390f35b34801561046757600080fd5b50610482600480360361047d9190810190612e54565b612137565b604051610494969594939291906138f6565b60405180910390f35b3480156104a957600080fd5b506104b26124da565b6040516104bf91906138b2565b60405180910390f35b3480156104d457600080fd5b506104ef60048036036104ea9190810190612d07565b6124e0565b005b3480156104fd57600080fd5b506105066126a4565b60405161051391906136f3565b60405180910390f35b60018054600181600116156101000203166002900480601f0160208091040260200160405190810160405280929190818152602001828054600181600116156101000203166002900480156105b25780601f10610587576101008083540402835291602001916105b2565b820191906000526020600020905b81548152906001019060200180831161059557829003601f168201915b505050505081565b600781815481106105c757fe5b9060005260206000209060090201600091509050806000015490806001018054600181600116156101000203166002900480601f0160208091040260200160405190810160405280929190818152602001828054600181600116156101000203166002900480156106795780601f1061064e57610100808354040283529160200191610679565b820191906000526020600020905b81548152906001019060200180831161065c57829003601f168201915b505050505090806002018054600181600116156101000203166002900480601f0160208091040260200160405190810160405280929190818152602001828054600181600116156101000203166002900480156107175780601f106106ec57610100808354040283529160200191610717565b820191906000526020600020905b8154815290600101906020018083116106fa57829003601f168201915b505050505090806003015490806004015490806005018054600181600116156101000203166002900480601f0160208091040260200160405190810160405280929190818152602001828054600181600116156101000203166002900480156107c15780601f10610796576101008083540402835291602001916107c1565b820191906000526020600020905b8154815290600101906020018083116107a457829003601f168201915b5050505050908060060154905087565b600a60205281600052604060002081815481106107ea57fe5b9060005260206000209060060201600091509150508060000154908060010154908060020154908060030154908060040154908060050160009054906101000a900473ffffffffffffffffffffffffffffffffffffffff16908060050160149054906101000a900460ff16905087565b600060149054906101000a900460ff16156108aa576040517f08c379a00000000000000000000000000000000000000000000000000000000081526004016108a190613792565b60405180910390fd5b816004548111156108f0576040517f08c379a00000000000000000000000000000000000000000000000000000000081526004016108e790613832565b60405180910390fd5b8282806008600084815260200190815260200160002060040154101561094b576040517f08c379a000000000000000000000000000000000000000000000000000000000815260040161094290613772565b60405180910390fd5b60008411801561095b5750600085115b61099a576040517f08c379a000000000000000000000000000000000000000000000000000000000815260040161099190613892565b60405180910390fd5b600084600860008881526020019081526020016000206003015402905080600660009054906101000a900473ffffffffffffffffffffffffffffffffffffffff1673ffffffffffffffffffffffffffffffffffffffff1663dd62ed3e33306040518363ffffffff1660e01b8152600401610a15929190613693565b60206040518083038186803b158015610a2d57600080fd5b505afa158015610a41573d6000803e3d6000fd5b505050506040513d601f19601f82011682018060405250610a659190810190612e7d565b1015610aa6576040517f08c379a0000000000000000000000000000000000000000000000000000000008152600401610a9d906137b2565b60405180910390fd5b6000600860008881526020019081526020016000209050600660009054906101000a900473ffffffffffffffffffffffffffffffffffffffff1673ffffffffffffffffffffffffffffffffffffffff166323b872dd3330856040518463ffffffff1660e01b8152600401610b1c939291906136bc565b602060405180830381600087803b158015610b3657600080fd5b505af1158015610b4a573d6000803e3d6000fd5b505050506040513d601f19601f82011682018060405250610b6e9190810190612d6c565b50600560008154809291906001019190505550600060096000600554815260200190815260200160002090506005548160000181905550878160010181905550828160020181905550428160040181905550338160050160006101000a81548173ffffffffffffffffffffffffffffffffffffffff021916908373ffffffffffffffffffffffffffffffffffffffff16021790555086816003018190555060008160050160146101000a81548160ff02191690836003811115610c2d57fe5b021790555086600860008a81526020019081526020016000206004016000828254039250508190555086600860008a8152602001908152602001600020600601600082825401925050819055506008600089815260200190815260200160002060080181600001549080600181540180825580915050600190039060005260206000200160009091909190915055600a60003373ffffffffffffffffffffffffffffffffffffffff1673ffffffffffffffffffffffffffffffffffffffff16815260200190815260200160002081908060018154018082558091505060019003906000526020600020906006020160009091909190915060008201548160000155600182015481600101556002820154816002015560038201548160030155600482015481600401556005820160009054906101000a900473ffffffffffffffffffffffffffffffffffffffff168160050160006101000a81548173ffffffffffffffffffffffffffffffffffffffff021916908373ffffffffffffffffffffffffffffffffffffffff1602179055506005820160149054906101000a900460ff168160050160146101000a81548160ff02191690836003811115610dee57fe5b0217905550505060086000898152602001908152602001600020600701339080600181540180825580915050600190039060005260206000200160009091909190916101000a81548173ffffffffffffffffffffffffffffffffffffffff021916908373ffffffffffffffffffffffffffffffffffffffff16021790555060008090505b600780549050811015610fa0578860078281548110610e8d57fe5b9060005260206000209060090201600001541415610f93578260078281548110610eb357fe5b90600052602060002090600902016000820154816000015560018201816001019080546001816001161561010002031660029004610ef2929190612a00565b5060028201816002019080546001816001161561010002031660029004610f1a929190612a00565b50600382015481600301556004820154816004015560058201816005019080546001816001161561010002031660029004610f56929190612a00565b50600682015481600601556007820181600701908054610f77929190612a87565b506008820181600801908054610f8e929190612ad9565b509050505b8080600101915050610e72565b507f9ad4ecfaf27ea0cbeebee0ed92fe15c8a84975f1e3d45ccfc526d7751dcf98ff8833604051610fd29291906138cd565b60405180910390a15050505050505050565b60055481565b600360019054906101000a900473ffffffffffffffffffffffffffffffffffffffff1681565b600360009054906101000a900460ff1681565b600660009054906101000a900473ffffffffffffffffffffffffffffffffffffffff1681565b600060149054906101000a900460ff1615611099576040517f08c379a000000000000000000000000000000000000000000000000000000000815260040161109090613792565b60405180910390fd5b816004548111156110df576040517f08c379a00000000000000000000000000000000000000000000000000000000081526004016110d690613832565b60405180910390fd5b8282806008600084815260200190815260200160002060040154101561113a576040517f08c379a000000000000000000000000000000000000000000000000000000000815260040161113190613772565b60405180910390fd5b60008411801561114a5750600085115b611189576040517f08c379a000000000000000000000000000000000000000000000000000000000815260040161118090613852565b60405180910390fd5b836008600087815260200190815260200160002060030154023410156111e4576040517f08c379a00000000000000000000000000000000000000000000000000000000081526004016111db90613872565b60405180910390fd5b6000600860008781526020019081526020016000209050600085600860008981526020019081526020016000206003015402905060008134039050600560008154809291906001019190505550600060096000600554815260200190815260200160002090506005548160000181905550888160010181905550828160020181905550428160040181905550338160050160006101000a81548173ffffffffffffffffffffffffffffffffffffffff021916908373ffffffffffffffffffffffffffffffffffffffff16021790555087816003018190555060008160050160146101000a81548160ff021916908360038111156112dd57fe5b021790555087846004016000828254039250508190555083600701339080600181540180825580915050600190039060005260206000200160009091909190916101000a81548173ffffffffffffffffffffffffffffffffffffffff021916908373ffffffffffffffffffffffffffffffffffffffff1602179055508360080181600001549080600181540180825580915050600190039060005260206000200160009091909190915055600a60003373ffffffffffffffffffffffffffffffffffffffff1673ffffffffffffffffffffffffffffffffffffffff16815260200190815260200160002081908060018154018082558091505060019003906000526020600020906006020160009091909190915060008201548160000155600182015481600101556002820154816002015560038201548160030155600482015481600401556005820160009054906101000a900473ffffffffffffffffffffffffffffffffffffffff168160050160006101000a81548173ffffffffffffffffffffffffffffffffffffffff021916908373ffffffffffffffffffffffffffffffffffffffff1602179055506005820160149054906101000a900460ff168160050160146101000a81548160ff021916908360038111156114bb57fe5b0217905550505087846006016000828254019250508190555060008090505b6007805490508110156116085789600782815481106114f557fe5b90600052602060002090600902016000015414156115fb57846007828154811061151b57fe5b9060005260206000209060090201600082015481600001556001820181600101908054600181600116156101000203166002900461155a929190612a00565b5060028201816002019080546001816001161561010002031660029004611582929190612a00565b506003820154816003015560048201548160040155600582018160050190805460018160011615610100020316600290046115be929190612a00565b506006820154816006015560078201816007019080546115df929190612a87565b5060088201816008019080546115f6929190612ad9565b509050505b80806001019150506114da565b50600082111561165a573373ffffffffffffffffffffffffffffffffffffffff166108fc839081150290604051600060405180830381858888f19350505050158015611658573d6000803e3d6000fd5b505b7f9ad4ecfaf27ea0cbeebee0ed92fe15c8a84975f1e3d45ccfc526d7751dcf98ff893360405161168b9291906138cd565b60405180910390a1505050505050505050565b60008060149054906101000a900460ff16905090565b6116bc6129f8565b73ffffffffffffffffffffffffffffffffffffffff166000809054906101000a900473ffffffffffffffffffffffffffffffffffffffff1673ffffffffffffffffffffffffffffffffffffffff161461174a576040517f08c379a0000000000000000000000000000000000000000000000000000000008152600401611741906137d2565b60405180910390fd5b600060149054906101000a900460ff161561179a576040517f08c379a000000000000000000000000000000000000000000000000000000000815260040161179190613792565b60405180910390fd5b600360019054906101000a900473ffffffffffffffffffffffffffffffffffffffff1673ffffffffffffffffffffffffffffffffffffffff166108fc479081150290604051600060405180830381858888f19350505050158015611802573d6000803e3d6000fd5b50565b61180d6129f8565b73ffffffffffffffffffffffffffffffffffffffff166000809054906101000a900473ffffffffffffffffffffffffffffffffffffffff1673ffffffffffffffffffffffffffffffffffffffff161461189b576040517f08c379a0000000000000000000000000000000000000000000000000000000008152600401611892906137d2565b60405180910390fd5b600073ffffffffffffffffffffffffffffffffffffffff168173ffffffffffffffffffffffffffffffffffffffff16141561190b576040517f08c379a0000000000000000000000000000000000000000000000000000000008152600401611902906137f2565b60405180910390fd5b600660009054906101000a900473ffffffffffffffffffffffffffffffffffffffff1673ffffffffffffffffffffffffffffffffffffffff168173ffffffffffffffffffffffffffffffffffffffff16141561199c576040517f08c379a000000000000000000000000000000000000000000000000000000000815260040161199390613812565b60405180910390fd5b80600660006101000a81548173ffffffffffffffffffffffffffffffffffffffff021916908373ffffffffffffffffffffffffffffffffffffffff16021790555050565b6119e86129f8565b73ffffffffffffffffffffffffffffffffffffffff166000809054906101000a900473ffffffffffffffffffffffffffffffffffffffff1673ffffffffffffffffffffffffffffffffffffffff1614611a76576040517f08c379a0000000000000000000000000000000000000000000000000000000008152600401611a6d906137d2565b60405180910390fd5b600060149054906101000a900460ff1615611ac6576040517f08c379a0000000000000000000000000000000000000000000000000000000008152600401611abd90613792565b60405180910390fd5b60046000815480929190600101919050555060006004549050600060086000838152602001908152602001600020905081816000018190555086816001019080519060200190611b17929190612b2b565b5085816002019080519060200190611b30929190612b2b565b5084816003018190555083816004018190555082816005019080519060200190611b5b929190612b2b565b506000816006018190555060078190806001815401808255809150506001900390600052602060002090600902016000909190919091506000820154816000015560018201816001019080546001816001161561010002031660029004611bc3929190612a00565b5060028201816002019080546001816001161561010002031660029004611beb929190612a00565b50600382015481600301556004820154816004015560058201816005019080546001816001161561010002031660029004611c27929190612a00565b50600682015481600601556007820181600701908054611c48929190612a87565b506008820181600801908054611c5f929190612ad9565b5050507f4fc9d5acc453e78e01b205af5788a1c62f195c4b5cdc8eb8f1c670863b7e736a82604051611c9191906138b2565b60405180910390a150505050505050565b611caa6129f8565b73ffffffffffffffffffffffffffffffffffffffff166000809054906101000a900473ffffffffffffffffffffffffffffffffffffffff1673ffffffffffffffffffffffffffffffffffffffff1614611d38576040517f08c379a0000000000000000000000000000000000000000000000000000000008152600401611d2f906137d2565b60405180910390fd5b600073ffffffffffffffffffffffffffffffffffffffff166000809054906101000a900473ffffffffffffffffffffffffffffffffffffffff1673ffffffffffffffffffffffffffffffffffffffff167f8be0079c531659141344cd1fd0a4f28419497f9722a3daafe3b4186f6b6457e060405160405180910390a360008060006101000a81548173ffffffffffffffffffffffffffffffffffffffff021916908373ffffffffffffffffffffffffffffffffffffffff160217905550565b60028054600181600116156101000203166002900480601f016020809104026020016040519081016040528092919081815260200182805460018160011615610100020316600290048015611e8d5780601f10611e6257610100808354040283529160200191611e8d565b820191906000526020600020905b815481529060010190602001808311611e7057829003601f168201915b505050505081565b6008602052806000526040600020600091509050806000015490806001018054600181600116156101000203166002900480601f016020809104026020016040519081016040528092919081815260200182805460018160011615610100020316600290048015611f475780601f10611f1c57610100808354040283529160200191611f47565b820191906000526020600020905b815481529060010190602001808311611f2a57829003601f168201915b505050505090806002018054600181600116156101000203166002900480601f016020809104026020016040519081016040528092919081815260200182805460018160011615610100020316600290048015611fe55780601f10611fba57610100808354040283529160200191611fe5565b820191906000526020600020905b815481529060010190602001808311611fc857829003601f168201915b505050505090806003015490806004015490806005018054600181600116156101000203166002900480601f01602080910402602001604051908101604052809291908181526020018280546001816001161561010002031660029004801561208f5780601f106120645761010080835404028352916020019161208f565b820191906000526020600020905b81548152906001019060200180831161207257829003601f168201915b5050505050908060060154905087565b60008060009054906101000a900473ffffffffffffffffffffffffffffffffffffffff16905090565b60096020528060005260406000206000915090508060000154908060010154908060020154908060030154908060040154908060050160009054906101000a900473ffffffffffffffffffffffffffffffffffffffff16908060050160149054906101000a900460ff16905087565b6000606060008060608086600454811115612187576040517f08c379a000000000000000000000000000000000000000000000000000000000815260040161217e90613832565b60405180910390fd5b61218f612bab565b600860008a81526020019081526020016000206040518061012001604052908160008201548152602001600182018054600181600116156101000203166002900480601f0160208091040260200160405190810160405280929190818152602001828054600181600116156101000203166002900480156122515780601f1061222657610100808354040283529160200191612251565b820191906000526020600020905b81548152906001019060200180831161223457829003601f168201915b50505050508152602001600282018054600181600116156101000203166002900480601f0160208091040260200160405190810160405280929190818152602001828054600181600116156101000203166002900480156122f35780601f106122c8576101008083540402835291602001916122f3565b820191906000526020600020905b8154815290600101906020018083116122d657829003601f168201915b505050505081526020016003820154815260200160048201548152602001600582018054600181600116156101000203166002900480601f0160208091040260200160405190810160405280929190818152602001828054600181600116156101000203166002900480156123a95780601f1061237e576101008083540402835291602001916123a9565b820191906000526020600020905b81548152906001019060200180831161238c57829003601f168201915b50505050508152602001600682015481526020016007820180548060200260200160405190810160405280929190818152602001828054801561244157602002820191906000526020600020905b8160009054906101000a900473ffffffffffffffffffffffffffffffffffffffff1673ffffffffffffffffffffffffffffffffffffffff16815260200190600101908083116123f7575b505050505081526020016008820180548060200260200160405190810160405280929190818152602001828054801561249957602002820191906000526020600020905b815481526020019060010190808311612485575b5050505050815250509050806000015197508060400151965080606001519550806080015194508060a0015193508061010001519250505091939550919395565b60045481565b6124e86129f8565b73ffffffffffffffffffffffffffffffffffffffff166000809054906101000a900473ffffffffffffffffffffffffffffffffffffffff1673ffffffffffffffffffffffffffffffffffffffff1614612576576040517f08c379a000000000000000000000000000000000000000000000000000000000815260040161256d906137d2565b60405180910390fd5b600073ffffffffffffffffffffffffffffffffffffffff168173ffffffffffffffffffffffffffffffffffffffff1614156125e6576040517f08c379a00000000000000000000000000000000000000000000000000000000081526004016125dd90613752565b60405180910390fd5b8073ffffffffffffffffffffffffffffffffffffffff166000809054906101000a900473ffffffffffffffffffffffffffffffffffffffff1673ffffffffffffffffffffffffffffffffffffffff167f8be0079c531659141344cd1fd0a4f28419497f9722a3daafe3b4186f6b6457e060405160405180910390a3806000806101000a81548173ffffffffffffffffffffffffffffffffffffffff021916908373ffffffffffffffffffffffffffffffffffffffff16021790555050565b60606007805480602002602001604051908101604052809291908181526020016000905b828210156129ef57838290600052602060002090600902016040518061012001604052908160008201548152602001600182018054600181600116156101000203166002900480601f01602080910402602001604051908101604052809291908181526020018280546001816001161561010002031660029004801561278f5780601f106127645761010080835404028352916020019161278f565b820191906000526020600020905b81548152906001019060200180831161277257829003601f168201915b50505050508152602001600282018054600181600116156101000203166002900480601f0160208091040260200160405190810160405280929190818152602001828054600181600116156101000203166002900480156128315780601f1061280657610100808354040283529160200191612831565b820191906000526020600020905b81548152906001019060200180831161281457829003601f168201915b505050505081526020016003820154815260200160048201548152602001600582018054600181600116156101000203166002900480601f0160208091040260200160405190810160405280929190818152602001828054600181600116156101000203166002900480156128e75780601f106128bc576101008083540402835291602001916128e7565b820191906000526020600020905b8154815290600101906020018083116128ca57829003601f168201915b50505050508152602001600682015481526020016007820180548060200260200160405190810160405280929190818152602001828054801561297f57602002820191906000526020600020905b8160009054906101000a900473ffffffffffffffffffffffffffffffffffffffff1673ffffffffffffffffffffffffffffffffffffffff1681526020019060010190808311612935575b50505050508152602001600882018054806020026020016040519081016040528092919081815260200182805480156129d757602002820191906000526020600020905b8154815260200190600101908083116129c3575b505050505081525050815260200190600101906126c8565b50505050905090565b600033905090565b828054600181600116156101000203166002900490600052602060002090601f016020900481019282601f10612a395780548555612a76565b82800160010185558215612a7657600052602060002091601f016020900482015b82811115612a75578254825591600101919060010190612a5a565b5b509050612a839190612bf7565b5090565b828054828255906000526020600020908101928215612ac85760005260206000209182015b82811115612ac7578254825591600101919060010190612aac565b5b509050612ad59190612c1c565b5090565b828054828255906000526020600020908101928215612b1a5760005260206000209182015b82811115612b19578254825591600101919060010190612afe565b5b509050612b279190612bf7565b5090565b828054600181600116156101000203166002900490600052602060002090601f016020900481019282601f10612b6c57805160ff1916838001178555612b9a565b82800160010185558215612b9a579182015b82811115612b99578251825591602001919060010190612b7e565b5b509050612ba79190612bf7565b5090565b6040518061012001604052806000815260200160608152602001606081526020016000815260200160008152602001606081526020016000815260200160608152602001606081525090565b612c1991905b80821115612c15576000816000905550600101612bfd565b5090565b90565b612c5c91905b80821115612c5857600081816101000a81549073ffffffffffffffffffffffffffffffffffffffff021916905550600101612c22565b5090565b90565b600081359050612c6e81613ce9565b92915050565b600081519050612c8381613d00565b92915050565b600082601f830112612c9a57600080fd5b8135612cad612ca882613a8c565b613a5f565b91508082526020830160208301858383011115612cc957600080fd5b612cd4838284613c89565b50505092915050565b600081359050612cec81613d17565b92915050565b600081519050612d0181613d17565b92915050565b600060208284031215612d1957600080fd5b6000612d2784828501612c5f565b91505092915050565b60008060408385031215612d4357600080fd5b6000612d5185828601612c5f565b9250506020612d6285828601612cdd565b9150509250929050565b600060208284031215612d7e57600080fd5b6000612d8c84828501612c74565b91505092915050565b600080600080600060a08688031215612dad57600080fd5b600086013567ffffffffffffffff811115612dc757600080fd5b612dd388828901612c89565b955050602086013567ffffffffffffffff811115612df057600080fd5b612dfc88828901612c89565b9450506040612e0d88828901612cdd565b9350506060612e1e88828901612cdd565b925050608086013567ffffffffffffffff811115612e3b57600080fd5b612e4788828901612c89565b9150509295509295909350565b600060208284031215612e6657600080fd5b6000612e7484828501612cdd565b91505092915050565b600060208284031215612e8f57600080fd5b6000612e9d84828501612cf2565b91505092915050565b60008060408385031215612eb957600080fd5b6000612ec785828601612cdd565b9250506020612ed885828601612cdd565b9150509250929050565b6000612eee8383612f44565b60208301905092915050565b6000612f06838361355e565b905092915050565b6000612f1a838361363f565b60208301905092915050565b612f2f81613c41565b82525050565b612f3e81613be6565b82525050565b612f4d81613bd4565b82525050565b612f5c81613bd4565b82525050565b6000612f6d82613af8565b612f778185613b6e565b9350612f8283613ab8565b8060005b83811015612fb3578151612f9a8882612ee2565b9750612fa583613b3a565b925050600181019050612f86565b5085935050505092915050565b6000612fcb82613b03565b612fd58185613b7f565b935083602082028501612fe785613ac8565b8060005b8581101561302357848403895281516130048582612efa565b945061300f83613b47565b925060208a01995050600181019050612feb565b50829750879550505050505092915050565b600061304082613b19565b61304a8185613ba1565b935061305583613ae8565b8060005b8381101561308657815161306d8882612f0e565b975061307883613b61565b925050600181019050613059565b5085935050505092915050565b600061309e82613b0e565b6130a88185613b90565b93506130b383613ad8565b8060005b838110156130e45781516130cb8882612f0e565b97506130d683613b54565b9250506001810190506130b7565b5085935050505092915050565b6130fa81613bf8565b82525050565b61310981613c53565b82525050565b600061311a82613b2f565b6131248185613bc3565b9350613134818560208601613c98565b61313d81613ccb565b840191505092915050565b600061315382613b24565b61315d8185613bb2565b935061316d818560208601613c98565b61317681613ccb565b840191505092915050565b600061318c82613b24565b6131968185613bc3565b93506131a6818560208601613c98565b6131af81613ccb565b840191505092915050565b60006131c7602683613bc3565b91507f4f776e61626c653a206e6577206f776e657220697320746865207a65726f206160008301527f64647265737300000000000000000000000000000000000000000000000000006020830152604082019050919050565b600061322d601083613bc3565b91507f4e6f7420656e6f7567682073746f636b000000000000000000000000000000006000830152602082019050919050565b600061326d601083613bc3565b91507f5061757361626c653a20706175736564000000000000000000000000000000006000830152602082019050919050565b60006132ad603c83613bc3565b91507f506c6561736520617070726f76652074686520616d6f756e74206f6620746f6b60008301527f656e7320746f207468697320636f6e74726163742061646472657373000000006020830152604082019050919050565b6000613313602083613bc3565b91507f4f776e61626c653a2063616c6c6572206973206e6f7420746865206f776e65726000830152602082019050919050565b6000613353602e83613bc3565b91507f546f6b656e20636f6e74726163742061646472657373206d757374206265206160008301527f2076616c696420616464726573730000000000000000000000000000000000006020830152604082019050919050565b60006133b9602c83613bc3565b91507f546869732061646472657373206973207468652073616d65206173206578697360008301527f74696e67206164647265737300000000000000000000000000000000000000006020830152604082019050919050565b600061341f601283613bc3565b91507f496e76616c69642070726f6475637420494400000000000000000000000000006000830152602082019050919050565b600061345f602f83613bc3565b91507f596f75206d7573742070726f7669646520612076616c69642070726f6475637460008301527f206964206f72207175616e7469747900000000000000000000000000000000006020830152604082019050919050565b60006134c5601983613bc3565b91507f4e6f7420656e6f7567682065746865722070726f7669646564000000000000006000830152602082019050919050565b6000613505602283613bc3565b91507f596f75206d7573742061746c65617374207075726368617365206f6e6520697460008301527f656d0000000000000000000000000000000000000000000000000000000000006020830152604082019050919050565b600061012083016000830151613577600086018261363f565b506020830151848203602086015261358f8282613148565b915050604083015184820360408601526135a98282613148565b91505060608301516135be606086018261363f565b5060808301516135d1608086018261363f565b5060a083015184820360a08601526135e98282613148565b91505060c08301516135fe60c086018261363f565b5060e083015184820360e08601526136168282612f62565b9150506101008301518482036101008601526136328282613093565b9150508091505092915050565b61364881613c37565b82525050565b61365781613c37565b82525050565b60006020820190506136726000830184612f53565b92915050565b600060208201905061368d6000830184612f35565b92915050565b60006040820190506136a86000830185612f26565b6136b56020830184612f53565b9392505050565b60006060820190506136d16000830186612f26565b6136de6020830185612f53565b6136eb604083018461364e565b949350505050565b6000602082019050818103600083015261370d8184612fc0565b905092915050565b600060208201905061372a60008301846130f1565b92915050565b6000602082019050818103600083015261374a8184613181565b905092915050565b6000602082019050818103600083015261376b816131ba565b9050919050565b6000602082019050818103600083015261378b81613220565b9050919050565b600060208201905081810360008301526137ab81613260565b9050919050565b600060208201905081810360008301526137cb816132a0565b9050919050565b600060208201905081810360008301526137eb81613306565b9050919050565b6000602082019050818103600083015261380b81613346565b9050919050565b6000602082019050818103600083015261382b816133ac565b9050919050565b6000602082019050818103600083015261384b81613412565b9050919050565b6000602082019050818103600083015261386b81613452565b9050919050565b6000602082019050818103600083015261388b816134b8565b9050919050565b600060208201905081810360008301526138ab816134f8565b9050919050565b60006020820190506138c7600083018461364e565b92915050565b60006040820190506138e2600083018561364e565b6138ef6020830184612f26565b9392505050565b600060c08201905061390b600083018961364e565b818103602083015261391d818861310f565b905061392c604083018761364e565b613939606083018661364e565b818103608083015261394b818561310f565b905081810360a083015261395f8184613035565b9050979650505050505050565b600060e082019050613981600083018a61364e565b81810360208301526139938189613181565b905081810360408301526139a78188613181565b90506139b6606083018761364e565b6139c3608083018661364e565b81810360a08301526139d58185613181565b90506139e460c083018461364e565b98975050505050505050565b600060e082019050613a05600083018a61364e565b613a12602083018961364e565b613a1f604083018861364e565b613a2c606083018761364e565b613a39608083018661364e565b613a4660a0830185612f35565b613a5360c0830184613100565b98975050505050505050565b6000604051905081810181811067ffffffffffffffff82111715613a8257600080fd5b8060405250919050565b600067ffffffffffffffff821115613aa357600080fd5b601f19601f8301169050602081019050919050565b6000819050602082019050919050565b6000819050602082019050919050565b6000819050602082019050919050565b6000819050602082019050919050565b600081519050919050565b600081519050919050565b600081519050919050565b600081519050919050565b600081519050919050565b600081519050919050565b6000602082019050919050565b6000602082019050919050565b6000602082019050919050565b6000602082019050919050565b600082825260208201905092915050565b600082825260208201905092915050565b600082825260208201905092915050565b600082825260208201905092915050565b600082825260208201905092915050565b600082825260208201905092915050565b6000613bdf82613c17565b9050919050565b6000613bf182613c17565b9050919050565b60008115159050919050565b6000819050613c1282613cdc565b919050565b600073ffffffffffffffffffffffffffffffffffffffff82169050919050565b6000819050919050565b6000613c4c82613c65565b9050919050565b6000613c5e82613c04565b9050919050565b6000613c7082613c77565b9050919050565b6000613c8282613c17565b9050919050565b82818337600083830152505050565b60005b83811015613cb6578082015181840152602081019050613c9b565b83811115613cc5576000848401525b50505050565b6000601f19601f8301169050919050565b60048110613ce657fe5b50565b613cf281613bd4565b8114613cfd57600080fd5b50565b613d0981613bf8565b8114613d1457600080fd5b50565b613d2081613c37565b8114613d2b57600080fd5b5056fea264697066735822122077c63689b0026db9d1bf07c5293cb862e6fc75bb13bc5554334fa9fce09c723d64736f6c634300060300334163636f756e74206e6f7420616e20617070726f7665642073746f7265206f776e65724163636f756e7420616c726561647920616e20617070726f7665642073746f7265206f776e6572596f7520617265206e6f7420616e20617070726f7665642073746f7265206f776e6572a2646970667358221220e75ae30cbb8213d9e9e166b77ae3565994b253663de82b35b9eeb94991e0d0c164736f6c63430006030033",
  "source": "pragma solidity 0.6.3;\n\nimport \"./Store.sol\";\n\ncontract StoreFactory{\n\n    event StoreCreated(uint storeId, address indexed marketplaceAddress);\n\n    address payable superAdmin;\n\n    uint public storesCount;\n    mapping(uint => Store) public stores;\n    Store[] public storesCollection;\n\n    mapping(address => bool) public isAdmin;\n    mapping(address => bool) public isApprovedStoreOwner;\n    mapping (address => Store[]) public ownerStores;\n\n    modifier onlyAdmins(){\n        require(isAdmin[msg.sender] || msg.sender == superAdmin, \"You are not an admin\");\n        _;\n    }\n\n    modifier onlyApprovedStoreOwners(){\n        require(isApprovedStoreOwner[msg.sender], \"You are not an approved store owner\");\n        _;\n    }\n\n    modifier onlySuperAdmin(){\n        require(msg.sender == superAdmin);\n        _;\n    }\n\n    constructor() public {\n        superAdmin = msg.sender;\n    }\n\n\n    function createNewStore(\n        address payable _beneficiary, \n        string memory _name ,\n        string memory _description\n    )\n    public\n    onlyApprovedStoreOwners\n    {\n        uint storeId = storesCount++;\n        Store store = new Store(_beneficiary, _name, _description);\n        stores[storeId] = store;\n        ownerStores[msg.sender].push(store);\n        storesCollection.push(store);\n        emit StoreCreated(storeId, address(store));\n    }\n\n    function addAdmins(address _admin) public onlySuperAdmin{\n        require(!isAdmin[_admin], \"Address already an admin\");\n        isAdmin[_admin] = true;\n    }\n\n    function removeAdmins(address _admin) public onlySuperAdmin{\n        require(isAdmin[_admin], \"Address not already an admin\");\n        isAdmin[_admin] = false;\n    }\n    \n    function addStoreOwner(address _owner) public onlyAdmins{\n        require(!isApprovedStoreOwner[_owner], \"Account already an approved store owner\");\n        isApprovedStoreOwner[_owner] = true;\n    }\n\n    function removeStoreOwner(address _owner) public onlyAdmins{\n        require(isApprovedStoreOwner[_owner], \"Account not an approved store owner\");\n        isApprovedStoreOwner[_owner] = false;\n    }\n\n    function getStore(uint storeId) public view returns(Store){\n        return stores[storeId];\n    }\n\n    function getAllStores() public view returns(Store[] memory _allStores){\n        _allStores = storesCollection;\n    }\n\n    function getOwnerStoresCount(address owner) public view returns(uint _storesCount){\n        _storesCount = ownerStores[owner].length; \n    }\n\n    function getOwnerStores(address _owner) public view returns(Store[] memory _ownerStores){\n        _ownerStores = ownerStores[_owner];\n    }\n\n    function getMyStores() public view returns(Store[] memory _myStores){\n        _myStores = ownerStores[msg.sender];\n    }\n\n    function getIsApprovedStoreOwner() public view returns(bool){\n        return isApprovedStoreOwner[msg.sender];\n    }\n\n}",
  "sourcePath": "/home/anthler/Desktop/SMART CONTRACTS/dappzon/contracts/StoreFactory.sol",
  "compiler": {
    "name": "solc",
    "version": "0.6.3+commit.8dda9521.Emscripten.clang"
  },
  "schemaVersion": "3.2.0",
  "updatedAt": "2020-08-11T10:25:44.579Z",
  "networkType": "ethereum",
  "devdoc": {
    "methods": {}
  },
  "userdoc": {
    "methods": {}
  }
}