{
  "contractName": "StoreFactory",
  "abi": [
    {
      "inputs": [],
      "stateMutability": "nonpayable",
      "type": "constructor"
    },
    {
      "anonymous": false,
      "inputs": [
        {
          "indexed": false,
          "internalType": "uint256",
          "name": "storeId",
          "type": "uint256"
        },
        {
          "indexed": true,
          "internalType": "address",
          "name": "marketplaceAddress",
          "type": "address"
        }
      ],
      "name": "StoreCreated",
      "type": "event"
    },
    {
      "inputs": [
        {
          "internalType": "address",
          "name": "",
          "type": "address"
        }
      ],
      "name": "isAdmin",
      "outputs": [
        {
          "internalType": "bool",
          "name": "",
          "type": "bool"
        }
      ],
      "stateMutability": "view",
      "type": "function",
      "constant": true
    },
    {
      "inputs": [
        {
          "internalType": "address",
          "name": "",
          "type": "address"
        }
      ],
      "name": "isApprovedStoreOwner",
      "outputs": [
        {
          "internalType": "bool",
          "name": "",
          "type": "bool"
        }
      ],
      "stateMutability": "view",
      "type": "function",
      "constant": true
    },
    {
      "inputs": [
        {
          "internalType": "address",
          "name": "",
          "type": "address"
        },
        {
          "internalType": "uint256",
          "name": "",
          "type": "uint256"
        }
      ],
      "name": "ownerStores",
      "outputs": [
        {
          "internalType": "contract Store",
          "name": "",
          "type": "address"
        }
      ],
      "stateMutability": "view",
      "type": "function",
      "constant": true
    },
    {
      "inputs": [
        {
          "internalType": "uint256",
          "name": "",
          "type": "uint256"
        }
      ],
      "name": "stores",
      "outputs": [
        {
          "internalType": "contract Store",
          "name": "",
          "type": "address"
        }
      ],
      "stateMutability": "view",
      "type": "function",
      "constant": true
    },
    {
      "inputs": [
        {
          "internalType": "uint256",
          "name": "",
          "type": "uint256"
        }
      ],
      "name": "storesCollection",
      "outputs": [
        {
          "internalType": "contract Store",
          "name": "",
          "type": "address"
        }
      ],
      "stateMutability": "view",
      "type": "function",
      "constant": true
    },
    {
      "inputs": [],
      "name": "storesCount",
      "outputs": [
        {
          "internalType": "uint256",
          "name": "",
          "type": "uint256"
        }
      ],
      "stateMutability": "view",
      "type": "function",
      "constant": true
    },
    {
      "inputs": [
        {
          "internalType": "address payable",
          "name": "_beneficiary",
          "type": "address"
        },
        {
          "internalType": "string",
          "name": "_name",
          "type": "string"
        },
        {
          "internalType": "string",
          "name": "_description",
          "type": "string"
        }
      ],
      "name": "createNewStore",
      "outputs": [],
      "stateMutability": "nonpayable",
      "type": "function"
    },
    {
      "inputs": [
        {
          "internalType": "address",
          "name": "_admin",
          "type": "address"
        }
      ],
      "name": "addAdmins",
      "outputs": [],
      "stateMutability": "nonpayable",
      "type": "function"
    },
    {
      "inputs": [
        {
          "internalType": "address",
          "name": "_admin",
          "type": "address"
        }
      ],
      "name": "removeAdmins",
      "outputs": [],
      "stateMutability": "nonpayable",
      "type": "function"
    },
    {
      "inputs": [
        {
          "internalType": "address payable",
          "name": "_owner",
          "type": "address"
        }
      ],
      "name": "addStoreOwner",
      "outputs": [],
      "stateMutability": "nonpayable",
      "type": "function"
    },
    {
      "inputs": [
        {
          "internalType": "address payable",
          "name": "_owner",
          "type": "address"
        }
      ],
      "name": "removeStoreOwner",
      "outputs": [],
      "stateMutability": "nonpayable",
      "type": "function"
    },
    {
      "inputs": [
        {
          "internalType": "uint256",
          "name": "storeId",
          "type": "uint256"
        }
      ],
      "name": "getStore",
      "outputs": [
        {
          "internalType": "contract Store",
          "name": "",
          "type": "address"
        }
      ],
      "stateMutability": "view",
      "type": "function",
      "constant": true
    },
    {
      "inputs": [],
      "name": "getAllStores",
      "outputs": [
        {
          "internalType": "contract Store[]",
          "name": "_allStores",
          "type": "address[]"
        }
      ],
      "stateMutability": "view",
      "type": "function",
      "constant": true
    },
    {
      "inputs": [
        {
          "internalType": "address",
          "name": "owner",
          "type": "address"
        }
      ],
      "name": "getOwnerStoresCount",
      "outputs": [
        {
          "internalType": "uint256",
          "name": "_storesCount",
          "type": "uint256"
        }
      ],
      "stateMutability": "view",
      "type": "function",
      "constant": true
    },
    {
      "inputs": [
        {
          "internalType": "address",
          "name": "_owner",
          "type": "address"
        }
      ],
      "name": "getOwnerStores",
      "outputs": [
        {
          "internalType": "contract Store[]",
          "name": "_ownerStores",
          "type": "address[]"
        }
      ],
      "stateMutability": "view",
      "type": "function",
      "constant": true
    },
    {
      "inputs": [],
      "name": "getMyStores",
      "outputs": [
        {
          "internalType": "contract Store[]",
          "name": "_myStores",
          "type": "address[]"
        }
      ],
      "stateMutability": "view",
      "type": "function",
      "constant": true
    },
    {
      "inputs": [],
      "name": "getIsApprovedStoreOwner",
      "outputs": [
        {
          "internalType": "bool",
          "name": "",
          "type": "bool"
        }
      ],
      "stateMutability": "view",
      "type": "function",
      "constant": true
    }
  ],
  "bytecode": "0x608060405234801561001057600080fd5b50336000806101000a81548173ffffffffffffffffffffffffffffffffffffffff021916908373ffffffffffffffffffffffffffffffffffffffff160217905550615f3e806100606000396000f3fe60806040523480156200001157600080fd5b5060043610620001245760003560e01c80638b4bd10511620000b1578063c45d05d5116200007b578063c45d05d51462000531578063cd9c0a3814620006ac578063dca73e6b146200074a578063e304f6ee14620007ad578063e8a59cd814620007f45762000124565b80638b4bd10514620004435780639adeb5f114620004a6578063aa0cd2b814620004ed578063aa4340d4146200050d5762000124565b806351732a4e11620000f357806351732a4e146200029b5780636174fdd1146200032c578063706bc10714620003735780638340312014620003d25762000124565b80631f939ce6146200012957806324d7806c146200019a578063310e4bf814620001f9578063499b7bfa1462000254575b600080fd5b62000158600480360360208110156200014157600080fd5b810190808035906020019092919050505062000865565b604051808273ffffffffffffffffffffffffffffffffffffffff1673ffffffffffffffffffffffffffffffffffffffff16815260200191505060405180910390f35b620001df60048036036020811015620001b257600080fd5b81019080803573ffffffffffffffffffffffffffffffffffffffff169060200190929190505050620008a2565b604051808215151515815260200191505060405180910390f35b6200023e600480360360208110156200021157600080fd5b81019080803573ffffffffffffffffffffffffffffffffffffffff169060200190929190505050620008c2565b6040518082815260200191505060405180910390f35b62000299600480360360208110156200026c57600080fd5b81019080803573ffffffffffffffffffffffffffffffffffffffff1690602001909291905050506200090e565b005b620002ea60048036036040811015620002b357600080fd5b81019080803573ffffffffffffffffffffffffffffffffffffffff1690602001909291908035906020019092919050505062000a83565b604051808273ffffffffffffffffffffffffffffffffffffffff1673ffffffffffffffffffffffffffffffffffffffff16815260200191505060405180910390f35b62000371600480360360208110156200034457600080fd5b81019080803573ffffffffffffffffffffffffffffffffffffffff16906020019092919050505062000acf565b005b620003b8600480360360208110156200038b57600080fd5b81019080803573ffffffffffffffffffffffffffffffffffffffff16906020019092919050505062000ce6565b604051808215151515815260200191505060405180910390f35b6200040160048036036020811015620003ea57600080fd5b810190808035906020019092919050505062000d06565b604051808273ffffffffffffffffffffffffffffffffffffffff1673ffffffffffffffffffffffffffffffffffffffff16815260200191505060405180910390f35b6200044d62000d43565b6040518080602001828103825283818151815260200191508051906020019060200280838360005b838110156200049257808201518184015260208101905062000475565b505050509050019250505060405180910390f35b620004eb60048036036020811015620004be57600080fd5b81019080803573ffffffffffffffffffffffffffffffffffffffff16906020019092919050505062000dd3565b005b620004f762000feb565b6040518082815260200191505060405180910390f35b6200051762000ff1565b604051808215151515815260200191505060405180910390f35b620006aa600480360360608110156200054957600080fd5b81019080803573ffffffffffffffffffffffffffffffffffffffff169060200190929190803590602001906401000000008111156200058757600080fd5b8201836020820111156200059a57600080fd5b80359060200191846001830284011164010000000083111715620005bd57600080fd5b91908080601f016020809104026020016040519081016040528093929190818152602001838380828437600081840152601f19601f820116905080830192505050505050509192919290803590602001906401000000008111156200062157600080fd5b8201836020820111156200063457600080fd5b803590602001918460018302840111640100000000831117156200065757600080fd5b91908080601f016020809104026020016040519081016040528093929190818152602001838380828437600081840152601f19601f82011690508083019250505050505050919291929050505062001045565b005b620006f160048036036020811015620006c457600080fd5b81019080803573ffffffffffffffffffffffffffffffffffffffff169060200190929190505050620013ef565b6040518080602001828103825283818151815260200191508051906020019060200280838360005b838110156200073657808201518184015260208101905062000719565b505050509050019250505060405180910390f35b62000754620014be565b6040518080602001828103825283818151815260200191508051906020019060200280838360005b83811015620007995780820151818401526020810190506200077c565b505050509050019250505060405180910390f35b620007f260048036036020811015620007c557600080fd5b81019080803573ffffffffffffffffffffffffffffffffffffffff1690602001909291905050506200158b565b005b62000823600480360360208110156200080c57600080fd5b810190808035906020019092919050505062001701565b604051808273ffffffffffffffffffffffffffffffffffffffff1673ffffffffffffffffffffffffffffffffffffffff16815260200191505060405180910390f35b600381815481106200087357fe5b906000526020600020016000915054906101000a900473ffffffffffffffffffffffffffffffffffffffff1681565b60046020528060005260406000206000915054906101000a900460ff1681565b6000600660008373ffffffffffffffffffffffffffffffffffffffff1673ffffffffffffffffffffffffffffffffffffffff168152602001908152602001600020805490509050919050565b6000809054906101000a900473ffffffffffffffffffffffffffffffffffffffff1673ffffffffffffffffffffffffffffffffffffffff163373ffffffffffffffffffffffffffffffffffffffff16146200096857600080fd5b600460008273ffffffffffffffffffffffffffffffffffffffff1673ffffffffffffffffffffffffffffffffffffffff16815260200190815260200160002060009054906101000a900460ff1662000a28576040517f08c379a000000000000000000000000000000000000000000000000000000000815260040180806020018281038252601c8152602001807f41646472657373206e6f7420616c726561647920616e2061646d696e0000000081525060200191505060405180910390fd5b6000600460008373ffffffffffffffffffffffffffffffffffffffff1673ffffffffffffffffffffffffffffffffffffffff16815260200190815260200160002060006101000a81548160ff02191690831515021790555050565b6006602052816000526040600020818154811062000a9d57fe5b906000526020600020016000915091509054906101000a900473ffffffffffffffffffffffffffffffffffffffff1681565b600460003373ffffffffffffffffffffffffffffffffffffffff1673ffffffffffffffffffffffffffffffffffffffff16815260200190815260200160002060009054906101000a900460ff168062000b7457506000809054906101000a900473ffffffffffffffffffffffffffffffffffffffff1673ffffffffffffffffffffffffffffffffffffffff163373ffffffffffffffffffffffffffffffffffffffff16145b62000be7576040517f08c379a00000000000000000000000000000000000000000000000000000000081526004018080602001828103825260148152602001807f596f7520617265206e6f7420616e2061646d696e00000000000000000000000081525060200191505060405180910390fd5b600560008273ffffffffffffffffffffffffffffffffffffffff1673ffffffffffffffffffffffffffffffffffffffff16815260200190815260200160002060009054906101000a900460ff1662000c8b576040517f08c379a000000000000000000000000000000000000000000000000000000000815260040180806020018281038252602381526020018062005e9c6023913960400191505060405180910390fd5b6000600560008373ffffffffffffffffffffffffffffffffffffffff1673ffffffffffffffffffffffffffffffffffffffff16815260200190815260200160002060006101000a81548160ff02191690831515021790555050565b60056020528060005260406000206000915054906101000a900460ff1681565b60006002600083815260200190815260200160002060009054906101000a900473ffffffffffffffffffffffffffffffffffffffff169050919050565b6060600380548060200260200160405190810160405280929190818152602001828054801562000dc957602002820191906000526020600020905b8160009054906101000a900473ffffffffffffffffffffffffffffffffffffffff1673ffffffffffffffffffffffffffffffffffffffff168152602001906001019080831162000d7e575b5050505050905090565b600460003373ffffffffffffffffffffffffffffffffffffffff1673ffffffffffffffffffffffffffffffffffffffff16815260200190815260200160002060009054906101000a900460ff168062000e7857506000809054906101000a900473ffffffffffffffffffffffffffffffffffffffff1673ffffffffffffffffffffffffffffffffffffffff163373ffffffffffffffffffffffffffffffffffffffff16145b62000eeb576040517f08c379a00000000000000000000000000000000000000000000000000000000081526004018080602001828103825260148152602001807f596f7520617265206e6f7420616e2061646d696e00000000000000000000000081525060200191505060405180910390fd5b600560008273ffffffffffffffffffffffffffffffffffffffff1673ffffffffffffffffffffffffffffffffffffffff16815260200190815260200160002060009054906101000a900460ff161562000f90576040517f08c379a000000000000000000000000000000000000000000000000000000000815260040180806020018281038252602781526020018062005ebf6027913960400191505060405180910390fd5b6001600560008373ffffffffffffffffffffffffffffffffffffffff1673ffffffffffffffffffffffffffffffffffffffff16815260200190815260200160002060006101000a81548160ff02191690831515021790555050565b60015481565b6000600560003373ffffffffffffffffffffffffffffffffffffffff1673ffffffffffffffffffffffffffffffffffffffff16815260200190815260200160002060009054906101000a900460ff16905090565b600560003373ffffffffffffffffffffffffffffffffffffffff1673ffffffffffffffffffffffffffffffffffffffff16815260200190815260200160002060009054906101000a900460ff16620010e9576040517f08c379a000000000000000000000000000000000000000000000000000000000815260040180806020018281038252602381526020018062005ee66023913960400191505060405180910390fd5b6000600160008154809291906001019190505590506000848484604051620011119062001734565b808473ffffffffffffffffffffffffffffffffffffffff1673ffffffffffffffffffffffffffffffffffffffff1681526020018060200180602001838103835285818151815260200191508051906020019080838360005b838110156200118657808201518184015260208101905062001169565b50505050905090810190601f168015620011b45780820380516001836020036101000a031916815260200191505b50838103825284818151815260200191508051906020019080838360005b83811015620011ef578082015181840152602081019050620011d2565b50505050905090810190601f1680156200121d5780820380516001836020036101000a031916815260200191505b5095505050505050604051809103906000f08015801562001242573d6000803e3d6000fd5b509050806002600084815260200190815260200160002060006101000a81548173ffffffffffffffffffffffffffffffffffffffff021916908373ffffffffffffffffffffffffffffffffffffffff160217905550600660003373ffffffffffffffffffffffffffffffffffffffff1673ffffffffffffffffffffffffffffffffffffffff168152602001908152602001600020819080600181540180825580915050600190039060005260206000200160009091909190916101000a81548173ffffffffffffffffffffffffffffffffffffffff021916908373ffffffffffffffffffffffffffffffffffffffff1602179055506003819080600181540180825580915050600190039060005260206000200160009091909190916101000a81548173ffffffffffffffffffffffffffffffffffffffff021916908373ffffffffffffffffffffffffffffffffffffffff1602179055508073ffffffffffffffffffffffffffffffffffffffff167f149a3f0b13d03805d9ca97808693784d65431d28ee20c1aeea798c093f4c09d1836040518082815260200191505060405180910390a25050505050565b6060600660008373ffffffffffffffffffffffffffffffffffffffff1673ffffffffffffffffffffffffffffffffffffffff168152602001908152602001600020805480602002602001604051908101604052809291908181526020018280548015620014b257602002820191906000526020600020905b8160009054906101000a900473ffffffffffffffffffffffffffffffffffffffff1673ffffffffffffffffffffffffffffffffffffffff168152602001906001019080831162001467575b50505050509050919050565b6060600660003373ffffffffffffffffffffffffffffffffffffffff1673ffffffffffffffffffffffffffffffffffffffff1681526020019081526020016000208054806020026020016040519081016040528092919081815260200182805480156200158157602002820191906000526020600020905b8160009054906101000a900473ffffffffffffffffffffffffffffffffffffffff1673ffffffffffffffffffffffffffffffffffffffff168152602001906001019080831162001536575b5050505050905090565b6000809054906101000a900473ffffffffffffffffffffffffffffffffffffffff1673ffffffffffffffffffffffffffffffffffffffff163373ffffffffffffffffffffffffffffffffffffffff1614620015e557600080fd5b600460008273ffffffffffffffffffffffffffffffffffffffff1673ffffffffffffffffffffffffffffffffffffffff16815260200190815260200160002060009054906101000a900460ff1615620016a6576040517f08c379a00000000000000000000000000000000000000000000000000000000081526004018080602001828103825260188152602001807f4164647265737320616c726561647920616e2061646d696e000000000000000081525060200191505060405180910390fd5b6001600460008373ffffffffffffffffffffffffffffffffffffffff1673ffffffffffffffffffffffffffffffffffffffff16815260200190815260200160002060006101000a81548160ff02191690831515021790555050565b60026020528060005260406000206000915054906101000a900473ffffffffffffffffffffffffffffffffffffffff1681565b61475980620017438339019056fe60806040523480156200001157600080fd5b5060405162004759380380620047598339818101604052620000379190810190620004a5565b600062000049620001a960201b60201c565b9050806000806101000a81548173ffffffffffffffffffffffffffffffffffffffff021916908373ffffffffffffffffffffffffffffffffffffffff1602179055508073ffffffffffffffffffffffffffffffffffffffff16600073ffffffffffffffffffffffffffffffffffffffff167f8be0079c531659141344cd1fd0a4f28419497f9722a3daafe3b4186f6b6457e060405160405180910390a35060008060146101000a81548160ff0219169083151502179055506200011232620001b160201b60201c565b81600190805190602001906200012a92919062000383565b5080600290805190602001906200014392919062000383565b5082600360016101000a81548173ffffffffffffffffffffffffffffffffffffffff021916908373ffffffffffffffffffffffffffffffffffffffff1602179055506001600360006101000a81548160ff0219169083151502179055505050506200070b565b600033905090565b620001c1620001a960201b60201c565b73ffffffffffffffffffffffffffffffffffffffff166000809054906101000a900473ffffffffffffffffffffffffffffffffffffffff1673ffffffffffffffffffffffffffffffffffffffff161462000252576040517f08c379a00000000000000000000000000000000000000000000000000000000081526004016200024990620005f9565b60405180910390fd5b600073ffffffffffffffffffffffffffffffffffffffff168173ffffffffffffffffffffffffffffffffffffffff161415620002c5576040517f08c379a0000000000000000000000000000000000000000000000000000000008152600401620002bc90620005d7565b60405180910390fd5b8073ffffffffffffffffffffffffffffffffffffffff166000809054906101000a900473ffffffffffffffffffffffffffffffffffffffff1673ffffffffffffffffffffffffffffffffffffffff167f8be0079c531659141344cd1fd0a4f28419497f9722a3daafe3b4186f6b6457e060405160405180910390a3806000806101000a81548173ffffffffffffffffffffffffffffffffffffffff021916908373ffffffffffffffffffffffffffffffffffffffff16021790555050565b828054600181600116156101000203166002900490600052602060002090601f016020900481019282601f10620003c657805160ff1916838001178555620003f7565b82800160010185558215620003f7579182015b82811115620003f6578251825591602001919060010190620003d9565b5b5090506200040691906200040a565b5090565b6200042f91905b808211156200042b57600081600090555060010162000411565b5090565b90565b6000815190506200044381620006f1565b92915050565b600082601f8301126200045b57600080fd5b8151620004726200046c8262000649565b6200061b565b915080825260208301602083018583830111156200048f57600080fd5b6200049c838284620006bb565b50505092915050565b600080600060608486031215620004bb57600080fd5b6000620004cb8682870162000432565b935050602084015167ffffffffffffffff811115620004e957600080fd5b620004f78682870162000449565b925050604084015167ffffffffffffffff8111156200051557600080fd5b620005238682870162000449565b9150509250925092565b60006200053c60268362000676565b91507f4f776e61626c653a206e6577206f776e657220697320746865207a65726f206160008301527f64647265737300000000000000000000000000000000000000000000000000006020830152604082019050919050565b6000620005a460208362000676565b91507f4f776e61626c653a2063616c6c6572206973206e6f7420746865206f776e65726000830152602082019050919050565b60006020820190508181036000830152620005f2816200052d565b9050919050565b60006020820190508181036000830152620006148162000595565b9050919050565b6000604051905081810181811067ffffffffffffffff821117156200063f57600080fd5b8060405250919050565b600067ffffffffffffffff8211156200066157600080fd5b601f19601f8301169050602081019050919050565b600082825260208201905092915050565b600062000694826200069b565b9050919050565b600073ffffffffffffffffffffffffffffffffffffffff82169050919050565b60005b83811015620006db578082015181840152602081019050620006be565b83811115620006eb576000848401525b50505050565b620006fc8162000687565b81146200070857600080fd5b50565b61403e806200071b6000396000f3fe6080604052600436106101445760003560e01c80636691461a116100b6578063a85c38ef1161006f578063a85c38ef14610423578063afde919214610466578063b9db15b4146104a3578063e0f6ef87146104e5578063f2fde38b14610510578063f43984521461053957610145565b80636691461a146103215780636daf0fbb1461034a578063715018a6146103735780637284e4161461038a5780637acc0b20146103b55780638da5cb5b146103f857610145565b806338af3eed1161010857806338af3eed1461024f57806347535d7b1461027a57806355a373d6146102a55780635816f187146102d05780635c975abb146102ec5780635fd8c7101461031757610145565b806306fdde03146101575780630a849d4f146101825780631600c6cd146101c55780631783ca831461020857806335daa7311461022457610145565b5b34801561015157600080fd5b50600080fd5b34801561016357600080fd5b5061016c610564565b60405161017991906139aa565b60405180910390f35b34801561018e57600080fd5b506101a960048036036101a49190810190612fe8565b610602565b6040516101bc9796959493929190613c46565b60405180910390f35b3480156101d157600080fd5b506101ec60048036036101e79190810190612ec4565b610819565b6040516101ff9796959493929190613cca565b60405180910390f35b610222600480360361021d919081019061303a565b6108a2565b005b34801561023057600080fd5b50610239610e93565b6040516102469190613b8c565b60405180910390f35b34801561025b57600080fd5b50610264610e99565b60405161027191906138f2565b60405180910390f35b34801561028657600080fd5b5061028f610ebf565b60405161029c919061398f565b60405180910390f35b3480156102b157600080fd5b506102ba610ed2565b6040516102c791906138d7565b60405180910390f35b6102ea60048036036102e5919081019061303a565b610ef8565b005b3480156102f857600080fd5b5061030161154d565b60405161030e919061398f565b60405180910390f35b61031f611563565b005b34801561032d57600080fd5b5061034860048036036103439190810190612e9b565b6116b4565b005b34801561035657600080fd5b50610371600480360361036c9190810190612f29565b61188f565b005b34801561037f57600080fd5b50610388611b51565b005b34801561039657600080fd5b5061039f611ca6565b6040516103ac91906139aa565b60405180910390f35b3480156103c157600080fd5b506103dc60048036036103d79190810190612fe8565b611d44565b6040516103ef9796959493929190613c46565b60405180910390f35b34801561040457600080fd5b5061040d611f4e565b60405161041a91906138d7565b60405180910390f35b34801561042f57600080fd5b5061044a60048036036104459190810190612fe8565b611f77565b60405161045d9796959493929190613cca565b60405180910390f35b34801561047257600080fd5b5061048d60048036036104889190810190612fe8565b611fe6565b60405161049a919061398f565b60405180910390f35b3480156104af57600080fd5b506104ca60048036036104c59190810190612fe8565b612276565b6040516104dc96959493929190613bd0565b60405180910390f35b3480156104f157600080fd5b506104fa612619565b6040516105079190613b8c565b60405180910390f35b34801561051c57600080fd5b5061053760048036036105329190810190612e9b565b61261f565b005b34801561054557600080fd5b5061054e6127e3565b60405161055b919061396d565b60405180910390f35b60018054600181600116156101000203166002900480601f0160208091040260200160405190810160405280929190818152602001828054600181600116156101000203166002900480156105fa5780601f106105cf576101008083540402835291602001916105fa565b820191906000526020600020905b8154815290600101906020018083116105dd57829003601f168201915b505050505081565b6006818154811061060f57fe5b9060005260206000209060090201600091509050806000015490806001018054600181600116156101000203166002900480601f0160208091040260200160405190810160405280929190818152602001828054600181600116156101000203166002900480156106c15780601f10610696576101008083540402835291602001916106c1565b820191906000526020600020905b8154815290600101906020018083116106a457829003601f168201915b505050505090806002018054600181600116156101000203166002900480601f01602080910402602001604051908101604052809291908181526020018280546001816001161561010002031660029004801561075f5780601f106107345761010080835404028352916020019161075f565b820191906000526020600020905b81548152906001019060200180831161074257829003601f168201915b505050505090806003015490806004015490806005018054600181600116156101000203166002900480601f0160208091040260200160405190810160405280929190818152602001828054600181600116156101000203166002900480156108095780601f106107de57610100808354040283529160200191610809565b820191906000526020600020905b8154815290600101906020018083116107ec57829003601f168201915b5050505050908060060154905087565b6009602052816000526040600020818154811061083257fe5b9060005260206000209060060201600091509150508060000154908060010154908060020154908060030154908060040154908060050160009054906101000a900473ffffffffffffffffffffffffffffffffffffffff16908060050160149054906101000a900460ff16905087565b600060149054906101000a900460ff16156108f2576040517f08c379a00000000000000000000000000000000000000000000000000000000081526004016108e990613a6c565b60405180910390fd5b81600454811115610938576040517f08c379a000000000000000000000000000000000000000000000000000000000815260040161092f90613b0c565b60405180910390fd5b82828060056000848152602001908152602001600020600401541015610993576040517f08c379a000000000000000000000000000000000000000000000000000000000815260040161098a906139ec565b60405180910390fd5b6000841180156109a35750600085115b6109e2576040517f08c379a00000000000000000000000000000000000000000000000000000000081526004016109d990613b6c565b60405180910390fd5b600084600560008881526020019081526020016000206003015402905080600a60009054906101000a900473ffffffffffffffffffffffffffffffffffffffff1673ffffffffffffffffffffffffffffffffffffffff1663dd62ed3e33306040518363ffffffff1660e01b8152600401610a5d92919061390d565b60206040518083038186803b158015610a7557600080fd5b505afa158015610a89573d6000803e3d6000fd5b505050506040513d601f19601f82011682018060405250610aad9190810190613011565b1015610aee576040517f08c379a0000000000000000000000000000000000000000000000000000000008152600401610ae590613a8c565b60405180910390fd5b600a60009054906101000a900473ffffffffffffffffffffffffffffffffffffffff1673ffffffffffffffffffffffffffffffffffffffff166323b872dd3330846040518463ffffffff1660e01b8152600401610b4d93929190613936565b602060405180830381600087803b158015610b6757600080fd5b505af1158015610b7b573d6000803e3d6000fd5b505050506040513d601f19601f82011682018060405250610b9f9190810190612f00565b5060076000815480929190600101919050555060006008600060075481526020019081526020016000209050600754816000018190555086816001018190555081816002018190555042816004018190555060008160050160146101000a81548160ff02191690836003811115610c1257fe5b02179055508560056000898152602001908152602001600020600401600082825403925050819055508560056000898152602001908152602001600020600601600082825401925050819055506005600088815260200190815260200160002060080181600001549080600181540180825580915050600190039060005260206000200160009091909190915055600960003373ffffffffffffffffffffffffffffffffffffffff1673ffffffffffffffffffffffffffffffffffffffff16815260200190815260200160002081908060018154018082558091505060019003906000526020600020906006020160009091909190915060008201548160000155600182015481600101556002820154816002015560038201548160030155600482015481600401556005820160009054906101000a900473ffffffffffffffffffffffffffffffffffffffff168160050160006101000a81548173ffffffffffffffffffffffffffffffffffffffff021916908373ffffffffffffffffffffffffffffffffffffffff1602179055506005820160149054906101000a900460ff168160050160146101000a81548160ff02191690836003811115610dd357fe5b0217905550505060056000888152602001908152602001600020600701339080600181540180825580915050600190039060005260206000200160009091909190916101000a81548173ffffffffffffffffffffffffffffffffffffffff021916908373ffffffffffffffffffffffffffffffffffffffff1602179055507f9ad4ecfaf27ea0cbeebee0ed92fe15c8a84975f1e3d45ccfc526d7751dcf98ff8733604051610e82929190613ba7565b60405180910390a150505050505050565b60075481565b600360019054906101000a900473ffffffffffffffffffffffffffffffffffffffff1681565b600360009054906101000a900460ff1681565b600a60009054906101000a900473ffffffffffffffffffffffffffffffffffffffff1681565b600060149054906101000a900460ff1615610f48576040517f08c379a0000000000000000000000000000000000000000000000000000000008152600401610f3f90613a6c565b60405180910390fd5b81600454811115610f8e576040517f08c379a0000000000000000000000000000000000000000000000000000000008152600401610f8590613b0c565b60405180910390fd5b82828060056000848152602001908152602001600020600401541015610fe9576040517f08c379a0000000000000000000000000000000000000000000000000000000008152600401610fe0906139ec565b60405180910390fd5b600084118015610ff95750600085115b611038576040517f08c379a000000000000000000000000000000000000000000000000000000000815260040161102f90613b2c565b60405180910390fd5b83600560008781526020019081526020016000206003015402341015611093576040517f08c379a000000000000000000000000000000000000000000000000000000000815260040161108a90613b4c565b60405180910390fd5b6000600560008781526020019081526020016000209050600085600560008981526020019081526020016000206003015402905060008134039050600760008154809291906001019190505550600060086000600754815260200190815260200160002090506007548160000181905550888160010181905550828160020181905550428160040181905550338160050160006101000a81548173ffffffffffffffffffffffffffffffffffffffff021916908373ffffffffffffffffffffffffffffffffffffffff16021790555087816003018190555060008160050160146101000a81548160ff0219169083600381111561118c57fe5b021790555087846004016000828254039250508190555083600701339080600181540180825580915050600190039060005260206000200160009091909190916101000a81548173ffffffffffffffffffffffffffffffffffffffff021916908373ffffffffffffffffffffffffffffffffffffffff1602179055508360080181600001549080600181540180825580915050600190039060005260206000200160009091909190915055600960003373ffffffffffffffffffffffffffffffffffffffff1673ffffffffffffffffffffffffffffffffffffffff16815260200190815260200160002081908060018154018082558091505060019003906000526020600020906006020160009091909190915060008201548160000155600182015481600101556002820154816002015560038201548160030155600482015481600401556005820160009054906101000a900473ffffffffffffffffffffffffffffffffffffffff168160050160006101000a81548173ffffffffffffffffffffffffffffffffffffffff021916908373ffffffffffffffffffffffffffffffffffffffff1602179055506005820160149054906101000a900460ff168160050160146101000a81548160ff0219169083600381111561136a57fe5b0217905550505087846006016000828254019250508190555060008090505b6006805490508110156114b75789600682815481106113a457fe5b90600052602060002090600902016000015414156114aa5784600682815481106113ca57fe5b90600052602060002090600902016000820154816000015560018201816001019080546001816001161561010002031660029004611409929190612b94565b5060028201816002019080546001816001161561010002031660029004611431929190612b94565b5060038201548160030155600482015481600401556005820181600501908054600181600116156101000203166002900461146d929190612b94565b5060068201548160060155600782018160070190805461148e929190612c1b565b5060088201816008019080546114a5929190612c6d565b509050505b8080600101915050611389565b506000821115611509573373ffffffffffffffffffffffffffffffffffffffff166108fc839081150290604051600060405180830381858888f19350505050158015611507573d6000803e3d6000fd5b505b7f9ad4ecfaf27ea0cbeebee0ed92fe15c8a84975f1e3d45ccfc526d7751dcf98ff893360405161153a929190613ba7565b60405180910390a1505050505050505050565b60008060149054906101000a900460ff16905090565b61156b612b37565b73ffffffffffffffffffffffffffffffffffffffff166000809054906101000a900473ffffffffffffffffffffffffffffffffffffffff1673ffffffffffffffffffffffffffffffffffffffff16146115f9576040517f08c379a00000000000000000000000000000000000000000000000000000000081526004016115f090613aac565b60405180910390fd5b600060149054906101000a900460ff1615611649576040517f08c379a000000000000000000000000000000000000000000000000000000000815260040161164090613a6c565b60405180910390fd5b600360019054906101000a900473ffffffffffffffffffffffffffffffffffffffff1673ffffffffffffffffffffffffffffffffffffffff166108fc479081150290604051600060405180830381858888f193505050501580156116b1573d6000803e3d6000fd5b50565b6116bc612b37565b73ffffffffffffffffffffffffffffffffffffffff166000809054906101000a900473ffffffffffffffffffffffffffffffffffffffff1673ffffffffffffffffffffffffffffffffffffffff161461174a576040517f08c379a000000000000000000000000000000000000000000000000000000000815260040161174190613aac565b60405180910390fd5b600073ffffffffffffffffffffffffffffffffffffffff168173ffffffffffffffffffffffffffffffffffffffff1614156117ba576040517f08c379a00000000000000000000000000000000000000000000000000000000081526004016117b190613acc565b60405180910390fd5b600a60009054906101000a900473ffffffffffffffffffffffffffffffffffffffff1673ffffffffffffffffffffffffffffffffffffffff168173ffffffffffffffffffffffffffffffffffffffff16141561184b576040517f08c379a000000000000000000000000000000000000000000000000000000000815260040161184290613aec565b60405180910390fd5b80600a60006101000a81548173ffffffffffffffffffffffffffffffffffffffff021916908373ffffffffffffffffffffffffffffffffffffffff16021790555050565b611897612b37565b73ffffffffffffffffffffffffffffffffffffffff166000809054906101000a900473ffffffffffffffffffffffffffffffffffffffff1673ffffffffffffffffffffffffffffffffffffffff1614611925576040517f08c379a000000000000000000000000000000000000000000000000000000000815260040161191c90613aac565b60405180910390fd5b600060149054906101000a900460ff1615611975576040517f08c379a000000000000000000000000000000000000000000000000000000000815260040161196c90613a6c565b60405180910390fd5b600460008154809291906001019190505550600060045490506000600560008381526020019081526020016000209050818160000181905550868160010190805190602001906119c6929190612cbf565b50858160020190805190602001906119df929190612cbf565b5084816003018190555083816004018190555082816005019080519060200190611a0a929190612cbf565b506000816006018190555060068190806001815401808255809150506001900390600052602060002090600902016000909190919091506000820154816000015560018201816001019080546001816001161561010002031660029004611a72929190612b94565b5060028201816002019080546001816001161561010002031660029004611a9a929190612b94565b50600382015481600301556004820154816004015560058201816005019080546001816001161561010002031660029004611ad6929190612b94565b50600682015481600601556007820181600701908054611af7929190612c1b565b506008820181600801908054611b0e929190612c6d565b5050507f4fc9d5acc453e78e01b205af5788a1c62f195c4b5cdc8eb8f1c670863b7e736a82604051611b409190613b8c565b60405180910390a150505050505050565b611b59612b37565b73ffffffffffffffffffffffffffffffffffffffff166000809054906101000a900473ffffffffffffffffffffffffffffffffffffffff1673ffffffffffffffffffffffffffffffffffffffff1614611be7576040517f08c379a0000000000000000000000000000000000000000000000000000000008152600401611bde90613aac565b60405180910390fd5b600073ffffffffffffffffffffffffffffffffffffffff166000809054906101000a900473ffffffffffffffffffffffffffffffffffffffff1673ffffffffffffffffffffffffffffffffffffffff167f8be0079c531659141344cd1fd0a4f28419497f9722a3daafe3b4186f6b6457e060405160405180910390a360008060006101000a81548173ffffffffffffffffffffffffffffffffffffffff021916908373ffffffffffffffffffffffffffffffffffffffff160217905550565b60028054600181600116156101000203166002900480601f016020809104026020016040519081016040528092919081815260200182805460018160011615610100020316600290048015611d3c5780601f10611d1157610100808354040283529160200191611d3c565b820191906000526020600020905b815481529060010190602001808311611d1f57829003601f168201915b505050505081565b6005602052806000526040600020600091509050806000015490806001018054600181600116156101000203166002900480601f016020809104026020016040519081016040528092919081815260200182805460018160011615610100020316600290048015611df65780601f10611dcb57610100808354040283529160200191611df6565b820191906000526020600020905b815481529060010190602001808311611dd957829003601f168201915b505050505090806002018054600181600116156101000203166002900480601f016020809104026020016040519081016040528092919081815260200182805460018160011615610100020316600290048015611e945780601f10611e6957610100808354040283529160200191611e94565b820191906000526020600020905b815481529060010190602001808311611e7757829003601f168201915b505050505090806003015490806004015490806005018054600181600116156101000203166002900480601f016020809104026020016040519081016040528092919081815260200182805460018160011615610100020316600290048015611f3e5780601f10611f1357610100808354040283529160200191611f3e565b820191906000526020600020905b815481529060010190602001808311611f2157829003601f168201915b5050505050908060060154905087565b60008060009054906101000a900473ffffffffffffffffffffffffffffffffffffffff16905090565b60086020528060005260406000206000915090508060000154908060010154908060020154908060030154908060040154908060050160009054906101000a900473ffffffffffffffffffffffffffffffffffffffff16908060050160149054906101000a900460ff16905087565b6000611ff0612b37565b73ffffffffffffffffffffffffffffffffffffffff166000809054906101000a900473ffffffffffffffffffffffffffffffffffffffff1673ffffffffffffffffffffffffffffffffffffffff161461207e576040517f08c379a000000000000000000000000000000000000000000000000000000000815260040161207590613aac565b60405180910390fd5b600060149054906101000a900460ff16156120ce576040517f08c379a00000000000000000000000000000000000000000000000000000000081526004016120c590613a6c565b60405180910390fd5b60008211612111576040517f08c379a000000000000000000000000000000000000000000000000000000000815260040161210890613a4c565b60405180910390fd5b6002600381111561211e57fe5b6008600084815260200190815260200160002060050160149054906101000a900460ff16600381111561214d57fe5b141561218e576040517f08c379a000000000000000000000000000000000000000000000000000000000815260040161218590613a2c565b60405180910390fd5b600060086000848152602001908152602001600020905060038160050160146101000a81548160ff021916908360038111156121c657fe5b02179055506121fc8160030154600560008460010154815260200190815260200160002060040154612b3f90919063ffffffff16565b508060050160009054906101000a900473ffffffffffffffffffffffffffffffffffffffff1673ffffffffffffffffffffffffffffffffffffffff166108fc82600201549081150290604051600060405180830381858888f1935050505015801561226b573d6000803e3d6000fd5b506001915050919050565b60006060600080606080866004548111156122c6576040517f08c379a00000000000000000000000000000000000000000000000000000000081526004016122bd90613b0c565b60405180910390fd5b6122ce612d3f565b600560008a81526020019081526020016000206040518061012001604052908160008201548152602001600182018054600181600116156101000203166002900480601f0160208091040260200160405190810160405280929190818152602001828054600181600116156101000203166002900480156123905780601f1061236557610100808354040283529160200191612390565b820191906000526020600020905b81548152906001019060200180831161237357829003601f168201915b50505050508152602001600282018054600181600116156101000203166002900480601f0160208091040260200160405190810160405280929190818152602001828054600181600116156101000203166002900480156124325780601f1061240757610100808354040283529160200191612432565b820191906000526020600020905b81548152906001019060200180831161241557829003601f168201915b505050505081526020016003820154815260200160048201548152602001600582018054600181600116156101000203166002900480601f0160208091040260200160405190810160405280929190818152602001828054600181600116156101000203166002900480156124e85780601f106124bd576101008083540402835291602001916124e8565b820191906000526020600020905b8154815290600101906020018083116124cb57829003601f168201915b50505050508152602001600682015481526020016007820180548060200260200160405190810160405280929190818152602001828054801561258057602002820191906000526020600020905b8160009054906101000a900473ffffffffffffffffffffffffffffffffffffffff1673ffffffffffffffffffffffffffffffffffffffff1681526020019060010190808311612536575b50505050508152602001600882018054806020026020016040519081016040528092919081815260200182805480156125d857602002820191906000526020600020905b8154815260200190600101908083116125c4575b5050505050815250509050806000015197508060400151965080606001519550806080015194508060a0015193508061010001519250505091939550919395565b60045481565b612627612b37565b73ffffffffffffffffffffffffffffffffffffffff166000809054906101000a900473ffffffffffffffffffffffffffffffffffffffff1673ffffffffffffffffffffffffffffffffffffffff16146126b5576040517f08c379a00000000000000000000000000000000000000000000000000000000081526004016126ac90613aac565b60405180910390fd5b600073ffffffffffffffffffffffffffffffffffffffff168173ffffffffffffffffffffffffffffffffffffffff161415612725576040517f08c379a000000000000000000000000000000000000000000000000000000000815260040161271c906139cc565b60405180910390fd5b8073ffffffffffffffffffffffffffffffffffffffff166000809054906101000a900473ffffffffffffffffffffffffffffffffffffffff1673ffffffffffffffffffffffffffffffffffffffff167f8be0079c531659141344cd1fd0a4f28419497f9722a3daafe3b4186f6b6457e060405160405180910390a3806000806101000a81548173ffffffffffffffffffffffffffffffffffffffff021916908373ffffffffffffffffffffffffffffffffffffffff16021790555050565b60606006805480602002602001604051908101604052809291908181526020016000905b82821015612b2e57838290600052602060002090600902016040518061012001604052908160008201548152602001600182018054600181600116156101000203166002900480601f0160208091040260200160405190810160405280929190818152602001828054600181600116156101000203166002900480156128ce5780601f106128a3576101008083540402835291602001916128ce565b820191906000526020600020905b8154815290600101906020018083116128b157829003601f168201915b50505050508152602001600282018054600181600116156101000203166002900480601f0160208091040260200160405190810160405280929190818152602001828054600181600116156101000203166002900480156129705780601f1061294557610100808354040283529160200191612970565b820191906000526020600020905b81548152906001019060200180831161295357829003601f168201915b505050505081526020016003820154815260200160048201548152602001600582018054600181600116156101000203166002900480601f016020809104026020016040519081016040528092919081815260200182805460018160011615610100020316600290048015612a265780601f106129fb57610100808354040283529160200191612a26565b820191906000526020600020905b815481529060010190602001808311612a0957829003601f168201915b505050505081526020016006820154815260200160078201805480602002602001604051908101604052809291908181526020018280548015612abe57602002820191906000526020600020905b8160009054906101000a900473ffffffffffffffffffffffffffffffffffffffff1673ffffffffffffffffffffffffffffffffffffffff1681526020019060010190808311612a74575b5050505050815260200160088201805480602002602001604051908101604052809291908181526020018280548015612b1657602002820191906000526020600020905b815481526020019060010190808311612b02575b50505050508152505081526020019060010190612807565b50505050905090565b600033905090565b600080828401905083811015612b8a576040517f08c379a0000000000000000000000000000000000000000000000000000000008152600401612b8190613a0c565b60405180910390fd5b8091505092915050565b828054600181600116156101000203166002900490600052602060002090601f016020900481019282601f10612bcd5780548555612c0a565b82800160010185558215612c0a57600052602060002091601f016020900482015b82811115612c09578254825591600101919060010190612bee565b5b509050612c179190612d8b565b5090565b828054828255906000526020600020908101928215612c5c5760005260206000209182015b82811115612c5b578254825591600101919060010190612c40565b5b509050612c699190612db0565b5090565b828054828255906000526020600020908101928215612cae5760005260206000209182015b82811115612cad578254825591600101919060010190612c92565b5b509050612cbb9190612d8b565b5090565b828054600181600116156101000203166002900490600052602060002090601f016020900481019282601f10612d0057805160ff1916838001178555612d2e565b82800160010185558215612d2e579182015b82811115612d2d578251825591602001919060010190612d12565b5b509050612d3b9190612d8b565b5090565b6040518061012001604052806000815260200160608152602001606081526020016000815260200160008152602001606081526020016000815260200160608152602001606081525090565b612dad91905b80821115612da9576000816000905550600101612d91565b5090565b90565b612df091905b80821115612dec57600081816101000a81549073ffffffffffffffffffffffffffffffffffffffff021916905550600101612db6565b5090565b90565b600081359050612e0281613fc3565b92915050565b600081519050612e1781613fda565b92915050565b600082601f830112612e2e57600080fd5b8135612e41612e3c82613d66565b613d39565b91508082526020830160208301858383011115612e5d57600080fd5b612e68838284613f63565b50505092915050565b600081359050612e8081613ff1565b92915050565b600081519050612e9581613ff1565b92915050565b600060208284031215612ead57600080fd5b6000612ebb84828501612df3565b91505092915050565b60008060408385031215612ed757600080fd5b6000612ee585828601612df3565b9250506020612ef685828601612e71565b9150509250929050565b600060208284031215612f1257600080fd5b6000612f2084828501612e08565b91505092915050565b600080600080600060a08688031215612f4157600080fd5b600086013567ffffffffffffffff811115612f5b57600080fd5b612f6788828901612e1d565b955050602086013567ffffffffffffffff811115612f8457600080fd5b612f9088828901612e1d565b9450506040612fa188828901612e71565b9350506060612fb288828901612e71565b925050608086013567ffffffffffffffff811115612fcf57600080fd5b612fdb88828901612e1d565b9150509295509295909350565b600060208284031215612ffa57600080fd5b600061300884828501612e71565b91505092915050565b60006020828403121561302357600080fd5b600061303184828501612e86565b91505092915050565b6000806040838503121561304d57600080fd5b600061305b85828601612e71565b925050602061306c85828601612e71565b9150509250929050565b600061308283836130d8565b60208301905092915050565b600061309a83836137d8565b905092915050565b60006130ae83836138b9565b60208301905092915050565b6130c381613f1b565b82525050565b6130d281613ec0565b82525050565b6130e181613eae565b82525050565b6130f081613eae565b82525050565b600061310182613dd2565b61310b8185613e48565b935061311683613d92565b8060005b8381101561314757815161312e8882613076565b975061313983613e14565b92505060018101905061311a565b5085935050505092915050565b600061315f82613ddd565b6131698185613e59565b93508360208202850161317b85613da2565b8060005b858110156131b75784840389528151613198858261308e565b94506131a383613e21565b925060208a0199505060018101905061317f565b50829750879550505050505092915050565b60006131d482613df3565b6131de8185613e7b565b93506131e983613dc2565b8060005b8381101561321a57815161320188826130a2565b975061320c83613e3b565b9250506001810190506131ed565b5085935050505092915050565b600061323282613de8565b61323c8185613e6a565b935061324783613db2565b8060005b8381101561327857815161325f88826130a2565b975061326a83613e2e565b92505060018101905061324b565b5085935050505092915050565b61328e81613ed2565b82525050565b61329d81613f2d565b82525050565b60006132ae82613e09565b6132b88185613e9d565b93506132c8818560208601613f72565b6132d181613fa5565b840191505092915050565b60006132e782613dfe565b6132f18185613e8c565b9350613301818560208601613f72565b61330a81613fa5565b840191505092915050565b600061332082613dfe565b61332a8185613e9d565b935061333a818560208601613f72565b61334381613fa5565b840191505092915050565b600061335b602683613e9d565b91507f4f776e61626c653a206e6577206f776e657220697320746865207a65726f206160008301527f64647265737300000000000000000000000000000000000000000000000000006020830152604082019050919050565b60006133c1601083613e9d565b91507f4e6f7420656e6f7567682073746f636b000000000000000000000000000000006000830152602082019050919050565b6000613401601b83613e9d565b91507f536166654d6174683a206164646974696f6e206f766572666c6f7700000000006000830152602082019050919050565b6000613441602283613e9d565b91507f44656c697665726564206f726465727320636e65642062652070726f6365737360008301527f65640000000000000000000000000000000000000000000000000000000000006020830152604082019050919050565b60006134a7601083613e9d565b91507f4f7264657220696420696e76616c6964000000000000000000000000000000006000830152602082019050919050565b60006134e7601083613e9d565b91507f5061757361626c653a20706175736564000000000000000000000000000000006000830152602082019050919050565b6000613527603c83613e9d565b91507f506c6561736520617070726f76652074686520616d6f756e74206f6620746f6b60008301527f656e7320746f207468697320636f6e74726163742061646472657373000000006020830152604082019050919050565b600061358d602083613e9d565b91507f4f776e61626c653a2063616c6c6572206973206e6f7420746865206f776e65726000830152602082019050919050565b60006135cd602e83613e9d565b91507f546f6b656e20636f6e74726163742061646472657373206d757374206265206160008301527f2076616c696420616464726573730000000000000000000000000000000000006020830152604082019050919050565b6000613633602c83613e9d565b91507f546869732061646472657373206973207468652073616d65206173206578697360008301527f74696e67206164647265737300000000000000000000000000000000000000006020830152604082019050919050565b6000613699601283613e9d565b91507f496e76616c69642070726f6475637420494400000000000000000000000000006000830152602082019050919050565b60006136d9602f83613e9d565b91507f596f75206d7573742070726f7669646520612076616c69642070726f6475637460008301527f206964206f72207175616e7469747900000000000000000000000000000000006020830152604082019050919050565b600061373f601983613e9d565b91507f4e6f7420656e6f7567682065746865722070726f7669646564000000000000006000830152602082019050919050565b600061377f602283613e9d565b91507f596f75206d7573742061746c65617374207075726368617365206f6e6520697460008301527f656d0000000000000000000000000000000000000000000000000000000000006020830152604082019050919050565b6000610120830160008301516137f160008601826138b9565b506020830151848203602086015261380982826132dc565b9150506040830151848203604086015261382382826132dc565b915050606083015161383860608601826138b9565b50608083015161384b60808601826138b9565b5060a083015184820360a086015261386382826132dc565b91505060c083015161387860c08601826138b9565b5060e083015184820360e086015261389082826130f6565b9150506101008301518482036101008601526138ac8282613227565b9150508091505092915050565b6138c281613f11565b82525050565b6138d181613f11565b82525050565b60006020820190506138ec60008301846130e7565b92915050565b600060208201905061390760008301846130c9565b92915050565b600060408201905061392260008301856130ba565b61392f60208301846130e7565b9392505050565b600060608201905061394b60008301866130ba565b61395860208301856130e7565b61396560408301846138c8565b949350505050565b600060208201905081810360008301526139878184613154565b905092915050565b60006020820190506139a46000830184613285565b92915050565b600060208201905081810360008301526139c48184613315565b905092915050565b600060208201905081810360008301526139e58161334e565b9050919050565b60006020820190508181036000830152613a05816133b4565b9050919050565b60006020820190508181036000830152613a25816133f4565b9050919050565b60006020820190508181036000830152613a4581613434565b9050919050565b60006020820190508181036000830152613a658161349a565b9050919050565b60006020820190508181036000830152613a85816134da565b9050919050565b60006020820190508181036000830152613aa58161351a565b9050919050565b60006020820190508181036000830152613ac581613580565b9050919050565b60006020820190508181036000830152613ae5816135c0565b9050919050565b60006020820190508181036000830152613b0581613626565b9050919050565b60006020820190508181036000830152613b258161368c565b9050919050565b60006020820190508181036000830152613b45816136cc565b9050919050565b60006020820190508181036000830152613b6581613732565b9050919050565b60006020820190508181036000830152613b8581613772565b9050919050565b6000602082019050613ba160008301846138c8565b92915050565b6000604082019050613bbc60008301856138c8565b613bc960208301846130ba565b9392505050565b600060c082019050613be560008301896138c8565b8181036020830152613bf781886132a3565b9050613c0660408301876138c8565b613c1360608301866138c8565b8181036080830152613c2581856132a3565b905081810360a0830152613c3981846131c9565b9050979650505050505050565b600060e082019050613c5b600083018a6138c8565b8181036020830152613c6d8189613315565b90508181036040830152613c818188613315565b9050613c9060608301876138c8565b613c9d60808301866138c8565b81810360a0830152613caf8185613315565b9050613cbe60c08301846138c8565b98975050505050505050565b600060e082019050613cdf600083018a6138c8565b613cec60208301896138c8565b613cf960408301886138c8565b613d0660608301876138c8565b613d1360808301866138c8565b613d2060a08301856130c9565b613d2d60c0830184613294565b98975050505050505050565b6000604051905081810181811067ffffffffffffffff82111715613d5c57600080fd5b8060405250919050565b600067ffffffffffffffff821115613d7d57600080fd5b601f19601f8301169050602081019050919050565b6000819050602082019050919050565b6000819050602082019050919050565b6000819050602082019050919050565b6000819050602082019050919050565b600081519050919050565b600081519050919050565b600081519050919050565b600081519050919050565b600081519050919050565b600081519050919050565b6000602082019050919050565b6000602082019050919050565b6000602082019050919050565b6000602082019050919050565b600082825260208201905092915050565b600082825260208201905092915050565b600082825260208201905092915050565b600082825260208201905092915050565b600082825260208201905092915050565b600082825260208201905092915050565b6000613eb982613ef1565b9050919050565b6000613ecb82613ef1565b9050919050565b60008115159050919050565b6000819050613eec82613fb6565b919050565b600073ffffffffffffffffffffffffffffffffffffffff82169050919050565b6000819050919050565b6000613f2682613f3f565b9050919050565b6000613f3882613ede565b9050919050565b6000613f4a82613f51565b9050919050565b6000613f5c82613ef1565b9050919050565b82818337600083830152505050565b60005b83811015613f90578082015181840152602081019050613f75565b83811115613f9f576000848401525b50505050565b6000601f19601f8301169050919050565b60048110613fc057fe5b50565b613fcc81613eae565b8114613fd757600080fd5b50565b613fe381613ed2565b8114613fee57600080fd5b50565b613ffa81613f11565b811461400557600080fd5b5056fea2646970667358221220188be4979da4e8a50758b527a1611e301d93c56033f4e7772e6147ca626d04a364736f6c634300060300334163636f756e74206e6f7420616e20617070726f7665642073746f7265206f776e65724163636f756e7420616c726561647920616e20617070726f7665642073746f7265206f776e6572596f7520617265206e6f7420616e20617070726f7665642073746f7265206f776e6572a2646970667358221220635eead8a346655a013349a9517af1b24b48b5ae43c3a8d41d876398d80889c164736f6c63430006030033",
  "source": "pragma solidity 0.6.3;\n\nimport \"./StoreContract.sol\";\n\ncontract StoreFactory{\n\n    event StoreCreated(uint storeId, address indexed marketplaceAddress);\n\n    address payable superAdmin;\n\n    uint public storesCount;\n    mapping(uint => Store) public stores;\n    Store[] public storesCollection;\n\n    mapping(address => bool) public isAdmin;\n    mapping(address => bool) public isApprovedStoreOwner;\n    mapping (address => Store[]) public ownerStores;\n\n    modifier onlyAdmins(){\n        require(isAdmin[msg.sender] || msg.sender == superAdmin, \"You are not an admin\");\n        _;\n    }\n\n    modifier onlyApprovedStoreOwners(){\n        require(isApprovedStoreOwner[msg.sender], \"You are not an approved store owner\");\n        _;\n    }\n\n    modifier onlySuperAdmin(){\n        require(msg.sender == superAdmin);\n        _;\n    }\n\n    constructor() public {\n        superAdmin = msg.sender;\n    }\n\n\n    function createNewStore(\n        address payable _beneficiary, \n        string memory _name ,\n        string memory _description\n    )\n    public\n    onlyApprovedStoreOwners\n    {\n        uint storeId = storesCount++;\n        Store store = new Store(_beneficiary, _name, _description);\n        stores[storeId] = store;\n        ownerStores[msg.sender].push(store);\n        storesCollection.push(store);\n        emit StoreCreated(storeId, address(store));\n    }\n\n    function addAdmins(address _admin) public onlySuperAdmin{\n        require(!isAdmin[_admin], \"Address already an admin\");\n        isAdmin[_admin] = true;\n    }\n\n    function removeAdmins(address _admin) public onlySuperAdmin{\n        require(isAdmin[_admin], \"Address not already an admin\");\n        isAdmin[_admin] = false;\n    }\n\n    function addStoreOwner(address payable _owner) public onlyAdmins{\n        require(!isApprovedStoreOwner[_owner], \"Account already an approved store owner\");\n        isApprovedStoreOwner[_owner] = true;\n    }\n\n    function removeStoreOwner(address payable _owner) public onlyAdmins{\n        require(isApprovedStoreOwner[_owner], \"Account not an approved store owner\");\n        isApprovedStoreOwner[_owner] = false;\n    }\n\n    function getStore(uint storeId) public view returns(Store){\n        return stores[storeId];\n    }\n\n    function getAllStores() public view returns(Store[] memory _allStores){\n        _allStores = storesCollection;\n        // uint size = storesCount - 1 ;\n        // allStores = new Store[](size);\n        // for(uint i = 0; i <= size; i++ ){\n        //     allStores[i] = stores[i];\n        // }\n    }\n\n    function getOwnerStoresCount(address owner) public view returns(uint _storesCount){\n        _storesCount = ownerStores[owner].length; \n    }\n\n    function getOwnerStores(address _owner) public view returns(Store[] memory _ownerStores){\n        _ownerStores = ownerStores[_owner];\n        // require(isApprovedStoreOwner[_owner], \"This address is not a store owner\");\n        // uint count = getOwnerStoresCount(_owner) - 1;\n        // for(uint i = 0; i <= count; i++){\n        //     _stores[i] = ownerStores[_owner][i];\n        // } \n    }\n\n    function getMyStores() public view returns(Store[] memory _myStores){\n        _myStores = ownerStores[msg.sender];\n        // require(isApprovedStoreOwner[msg.sender], \"This address is not a store owner\");\n        // uint count = getOwnerStoresCount(msg.sender) - 1;\n        // for(uint i = 0; i <= count; i++){\n        //     _myStores[i] = ownerStores[msg.sender][i];\n        // } \n    }\n\n    function getIsApprovedStoreOwner() public view returns(bool){\n        return isApprovedStoreOwner[msg.sender];\n    }\n\n}",
  "sourcePath": "/home/richix/Desktop/CONSENSYS-SCHOLAR/BOXES/decentralized-market/contracts/StoreFactory.sol",
  "compiler": {
    "name": "solc",
    "version": "0.6.3+commit.8dda9521.Emscripten.clang"
  },
  "schemaVersion": "3.1.0",
  "updatedAt": "2020-06-06T13:26:01.860Z",
  "networkType": "ethereum",
  "devdoc": {
    "methods": {}
  },
  "userdoc": {
    "methods": {}
  }
}